:100A9100023C0000023E0000024000000242000051
:1011C7005389F0438902538EF7758C7B758A7BD2DE
:0611D700A9D2AFD28C2268
:1011F30053890F438910538E7F758DF5758B95D267
:04120300ABD28E22BA
:03001B000212933B
:0A129300758DF5758B9575460132D7
:03000B00020D04DF
:040D0400C0E0C0D0BB
:100D0800053DE53D7002053C053FE53F7002053EA7
:100D18000541E541700205400543E543700205427F
:100D2800C3E53D9464E53C94004009753C00753D7D
:100D380000754801C3E5439464E542940040097591
:100D48004200754300754701C3E54194E8E54094C6
:100D5800034009754000754100754A01C3E53F9499
:100D6800E8E53E94034009753E00753F007549016A
:050D7800D0D0D0E032F4
:100AA1004C00C10000000000000000000000000137
:100AB1004600014800014900014A00014700014484
:040AC10000014500EB
:10001E009000CAE0FEA3E0FF64074E700A9000CA8B
:10002E00F0A37464F0801FBE020EBF580B9000CA7E
:10003E007402F0A37458F0229000CBE02464F09088
:10004E0000CAE03400F07B017D0A7C007F0A7E004E
:04005E001211482211
:100FA7009000CAE0FEA3E0FF64074E70099000CAF4
:100FB700F0A37407F022EF64644E700A9000CAF041
:100FC700A37407F0800E9000CBE0249CF09000CA39
:100FD700E034FFF07B017D0A7C007F0A7E0012115E
:020FE70048229E
:10120700E49000C3F09000CCF09000CAF0A37407FC
:04121700F00212DBF4
:0712C00043B18053B27F220D
:100EB0009000C3E0640170459000C2E004F0700649
:100EC0009000C1E004F0308731E5447009754401B9
:100ED0009000C1F0A3F09000CAE0FEA3E0FFC39031
:100EE00000C2E09F9000C1E09E4012E4F0A3F0F544
:100EF00044C2849000C904F08003E4F5449000C922
:070F0000E07004A287928457
:010F070022C7
:101016009000C9E06022A287308401B3500AE545FA
:101026007006754501C28322E545B40106E4F5451F
:08103600D28322E49000C9F00E
:01103E00228F
:10103F00E5486006E4F5481212B8E54A6006E4F5A3
:10104F004A120EB0E5496006E4F549121016E5475D
:09105F006006E4F547120F0822B7
:1010F5001212071212AF1212761212C07B057D3240
:0C1105007C007F327E001211620211C7D4
:09129D002095037F01227F00224D
:0912A6002097037F01227F002242
:101254009000C3E0FF64026007EF64036002C2838E
:011264002267
:1010D7009000C3E0FF64026014EFB4030302001E34
:0E10E700A287B39284D2839000C97401F022D4
:01001A0022C3
:101265009000C3E0FF64026007EFB40303120FA709
:011275002256
:10112D009000C3E0FF64026011EFB4030B9000CC9C
:0B113D00E09000C3F00212DBD283221E
:10121B009000C3E0B4030B9000CCE09000C3F0123D
:03122B0012DB22B1
:01006200227B
:0112E10022EA
:101068009000C3E0FFB4010EE4F09000CCF0C2841D
:101078009000C904F022EF700F9000C304F09000B4
:09108800CCF0C2849000C9F022F2
:10117C009000C3E0640260107403F07B017D0A7C74
:09118C00007F0A7E0012114822C6
:100D7D00751DFF751E12751F547520FF7521107599
:100D8D0022D77523FF75241175252D7526FF75271F
:100D9D00007528627529FF752A10752B687BFF7AFF
:100DAD0012799D120BAF751DFF751E00751F1A75FB
:100DBD0020FF7521127522657523FF752412752587
:100DCD001B7526FF7527127528E17529FF752A11E8
:0C0DDD00752B7C7BFF7A1279A6020BAF0D
:1012760043B3A053B45F53B1E743B218C284020D1F
:011286007DEA
:03000000020C7877
:0C0C7800787FE4F6D8FD75814B020CBFBC
:080003001210F512103F80FB02
:100AC5006027007200000000000000000000000028
:100AD5000000000000000000000000000000000011
:100AE5000000000000000000000000540099000014
:100AF50000000000000000000000000000000000F1
:020B05000000EE
:100E5400E4F51AF51BF51BE51B75F013A42472F5D4
:100E640082E43400F583E0FBA3E0FAA3E0F9EA4965
:100E74004B602DE51B75F013A42472F582E4340055
:100E8400F583A3E0FAA3E0F9120A8BBF0112E51B74
:100E940075F013A42484F582E43400F583E0421A47
:0B0EA400051BE51BC3940240AEAF1A13
:010EAF002220
:100BAF007F01900098E0FEC3940240021F22900044
:100BBF0098E0FD75F013A42472F582E43400F583F8
:100BCF00EBF0A3EAF0A3E9F0ED75F013A42475F5AB
:100BDF0082E43400F583E51DF0A3E51EF0A3E51FC5
:100BEF00F0ED75F013A42478F582E43400F583E575
:100BFF0020F0A3E521F0A3E522F0ED75F013A42476
:100C0F007BF582E43400F583E523F0A3E524F0A31C
:100C1F00E525F0ED75F013A4247EF582E43400F59C
:100C2F0083E526F0A3E527F0A3E528F0ED75F01393
:100C3F00A42481F582E43400F583E529F0A3E52AA5
:100C4F00F0A3E52BF0EFA805088002C333D8FCFF13
:100C5F00EE75F013A42484F582E43400F583EFF0ED
:080C6F00900098E004F07F0101
:010C7700225A
:100066008F1E8D1FE51F75F00AA4249EF582E434C9
:1000760000F583E004F0E51F75F00AA4249FF582DD
:10008600E43400F583E004F0E51E6017E51F75F023
:100096000AA4249DF582E43400F583E0651E70030E
:1000A600020264E51F75F00AA4249BF582E434007D
:1000B600F583E0FEA3E0C39402EE94005019E51F19
:1000C60075F00AA4249BF582E43400F583E475F008
:1000D60001120A06020416E51F75F00AA42499F512
:1000E60082E43400F583E0FEA3E0C39458EE940264
:1000F6004040E51F75F00AA424A2F582E43400F519
:1001060083E4F0E51F75F013A4247EF582E4340041
:10011600F583E0FBA3E0FAA3E0F9EA494B7003029A
:10012600023CE51F75F013A4247EF582E434000238
:100136000231E51F75F00AA42499F582E43400F52E
:1001460083E0FEA3E0C39402EE9400500302023C57
:10015600E51F75F013A42481F582E43400F583E0ED
:10016600FBA3E0FAA3E0F9EA494B7003020208E5B3
:100176001F75F00AA424A2F582E43400F583E0B4E6
:100186000114E51F75F00AA424A2F582E43400F5F3
:1001960083E4F002023CE51F75F00AA424A1F5826F
:1001A600E43400F583E0B40134E51F75F013A424AC
:1001B60078F582E43400F583E0FBA3E0FAA3E0F9E6
:1001C600EA494B6018E51F75F013A42478F582E41C
:1001D6003400F583A3E0FAA3E0F9120A8BE51F7554
:1001E600F00AA4249FF582E43400F583E4F0E51FC9
:1001F60075F00AA424A1F582E43400F5837401F0B5
:100206008034E51F75F013A42478F582E43400F5F4
:1002160083E0FBA3E0FAA3E0F9EA494B6018E51F87
:1002260075F013A42478F582E43400F583A3E0FA8C
:10023600A3E0F9120A8BE51F75F00AA4249DF58246
:10024600E43400F583E51EF0E51F75F00AA4249951
:10025600F582E43400F583E4F0A3F0020416E51F0A
:1002660075F00AA42499F582E43400F583E475F068
:1002760001120A06E51F75F00AA42499F582E434F2
:1002860000F583E0FEA3E064024E60030203B5E5D9
:100296001F75F00AA4249BF582E43400F583E4F08C
:1002A600A3F0E51F75F013A42481F582E43400F56C
:1002B60083E0FBA3E0FAA3E0F9EA494B70030203EB
:1002C6008AE51F75F00AA424A1F582E43400F583BB
:1002D600E064017078E51F75F00AA4249EF582E4B7
:1002E6003400F583E0C3941E5063E51F75F00AA43D
:1002F60024A2F582E43400F5837401F0E51F75F05D
:100306000AA424A1F582E43400F583E4F0E51F7520
:10031600F00AA424A0F582E43400F583E4F0E51F96
:1003260075F013A42481F582E43400F583E0FBA381
:10033600E0FAA3E0F9EA494B7003020416E51F75DB
:10034600F013A42481F582E4340002040BE51F7542
:10035600F00AA424A2F582E43400F583E4F0E51F54
:1003660075F00AA424A0F582E43400F5837401F044
:10037600E51F75F00AA4249EF582E43400F583E4B3
:10038600F0020416E51F75F013A42475F582E43413
:1003960000F583E0FBA3E0FAA3E0F9EA494B6070BD
:1003A600E51F75F013A42475F582E434008056E544
:1003B6001F75F00AA42499F582E43400F583E0FE63
:1003C600A3E064587003EE64027045E51F75F00AF9
:1003D600A424A2F582E43400F583E4F0E51F75F069
:1003E60013A4247BF582E43400F583E0FBA3E0FA52
:1003F600A3E0F9EA494B6018E51F75F013A4247BC6
:10040600F582E43400F583A3E0FAA3E0F9120A8B3F
:10041600E51F75F013A42481F582E43400F583E02A
:10042600FBA3E0FAA3E0F9EA494B7003020511E5E4
:100436001F75F00AA424A0F582E43400F583E06475
:1004460001705AE51F75F00AA4249EF582E4340073
:10045600F583E0C3941E4045E51F75F00AA424A069
:10046600F582E43400F583E4F0E51F75F013A42467
:1004760075F582E43400F583E0FBA3E0FAA3E0F926
:10048600EA494B6018E51F75F013A42475F582E45C
:100496003400F583A3E0FAA3E0F9120A8BE51F7591
:1004A600F00AA424A1F582E43400F583E064017027
:1004B6005AE51F75F00AA4249FF582E43400F583FB
:1004C600E0C3941E4045E51F75F00AA424A1F582F9
:1004D600E43400F583E4F0E51F75F013A42478F501
:1004E60082E43400F583E0FBA3E0FAA3E0F9EA49ED
:1004F6004B6018E51F75F013A42478F582E43400E8
:0C050600F583A3E0FAA3E0F9120A8B22AF
:020FE9008F1A5D
:100FEB00E4F51B751C01F51DF51BAF1BE51CA807D4
:100FFB00088002C333D8FC551AF51DAD1BFF120038
:0A100B0066051BE51BC3940240E0DC
:0110150022B8
:0812B800E4FF120E54020FE9DD
:100B070012080000000000000000000000000000C4
:040B170000000000DA
:0912AF0053B1DF43B220C28522D5
:100F0800E50E640270510513E51370020512C395CE
:100F180015E5129514404030850E850A14850B1589
:100F2800E51960100517800C850814850915E51862
:100F380060020516B285E4F512F513E519600AE5B5
:100F480017C3950D4003E4F50EE518600AE516C3CE
:080F5800950C4003750E012207
:10119500750E028E088F098C0A8D0BE4F50CF50D82
:0911A500F516F517F518F51922ED
:10114800750E028E088F098C0A8D0B8B0CE4F50D39
:0A115800F516F517751801F51922B8
:10116200750E028E088F098C0A8D0BE4F50C8B0D1F
:0A117200F516F517F518751901229E
:0612D500D285750E012216
:0612DB00C285E4F50E22BD
:0712C7008B0F8A1089112230
:100B1B005400ADFF000000000000000000000000CA
:070B2B0000000000000000C3
:10122E0075C7AA75C755439F0175C7AA75C755439C
:03123E00A50122E5
:1011DD0075AF2275A738E4F5A675AEFF75C7AA756C
:0611ED00C75543A40122D6
:1012410075C7AA75C75553A5FE75C7AA75C7555366
:031251009FFE22DB
:10109100E4FF75AF2175A7388FA674AD2FF582E4F3
:1010A1003400F583E0F5AE75C7AA75C75543A401B1
:0410B1000FBF14DE7B
:0110B5002218
:1010B600E4FDED2400FFE434388F82F583E493FFEA
:1010C60074AD2DF582E43400F583EFF00DBD14E226
:0110D60022F7
:0C000E0012122E1211DD1210910212418C
:100B320060640000000000000000000000000000EF
:100B420000000000000000000000000000000000A3
:100B52000000000000000000000000000000000093
:100B62000000000000000000000000000000000083
:100B72000000000000000000000000000000000073
:100B82000000000000000000000000000000000063
:100B920000000000000000004E00640000000000A1
:0C0BA200000000000000000000014B00FB
:040DE900AB07AA06A4
:100DED00900001E07019C3EB94FAEA94004057307B
:100DFD009554A3EAF0A3EBF09000017401F0227C6E
:100E0D00007D05AF03AE0212099FD3900003E09F52
:100E1D00900002E09E4016E54B25E02404F582E4A7
:100E2D003400F583EAF0A3EBF0054B8007E4900066
:100E3D0001F0F54BE54BC39430400BE4F54B9000BE
:060E4D000004F0E4A3F034
:010E5300227C
:1011AE00E490006EF0A3F090006A120A5A0000005C
:0911BE0000E4900064F0A3F022AB
:10051200E4F52FF52EF52DF52CF530F531F532F504
:1005220033F534F535F536F537F538F539F53AF56D
:100532003B900000E0640160030207D9F090006E76
:10054200E07002A3E0702D900004E0FFA3E09000B1
:1005520066CFF0A3EFF0900006E0FFA3E090006802
:10056200CFF0A3EFF0900002E0FFA3E0900064CF91
:10057200F0A3EFF0900068E0FEA3E0FF900067E0D8
:100582002FF531900066E03EF530FEAF317C007D04
:10059200051209B18E348F35900064E0FEA3E0FFAE
:1005A2007C007D051209B18E368F37E4FBEBC394D4
:1005B200304003020703EB25E02406F582E4340011
:1005C200F583E0FEA3E0FFEB25E02404F582E434AA
:1005D20000F583E0FCA3E0FD2FF533EC3EF532E5B8
:1005E200312535FFE5303534FED3E5339FE5329EC4
:1005F2005014C3E5319535FFE5309534FEC3E5333C
:100602009FE5329E500F900071E004F0700690005A
:1006120070E004F022EB25E02406F582E43400F5D4
:1006220083E0FEA3E0FFD3ED9FEC9E4050AF2FAEE0
:100632002EAD2DAC2C7801120A3BEF4401F52FEEC2
:10064200F52EEDF52DECF52CEB25E02406F582E4F4
:100652003400F583E0FEA3E02539F539EE3538F5AF
:1006620038EB25E02404F582E43400F583E0FEA3B0
:10067200E0253BF53BEE353AF53A0206FEEB25E086
:100682002406F582E43400F583E0FEA3E0FFEB25C7
:10069200E02404F582E43400F583E0FCA3E0C39F88
:1006A200EC9E5049AF2FAE2EAD2DAC2C7801120A24
:1006B2003B8F2F8E2E8D2D8C2CEB25E02406F58280
:1006C200E43400F583E0FEA3E0253BF53BEE353A4A
:1006D200F53AEB25E02404F582E43400F583E0FEEC
:1006E200A3E02539F539EE3538F538800F900071E1
:1006F200E004F07006900070E004F0220B0B02059B
:10070200AF900002E0FEA3E0FF2535FDE5343EFC9C
:10071200900064E0FAA3E0FBC39DEA9C502BC3EF78
:100722009535FFEE9534FED3EB9FEA9E401B900079
:100732006AE0FCA3E0FDA3E0FEA3E0FFAB2FAA2E3C
:10074200A92DA82C120A2A6078900002E0FFA3E0EB
:10075200900064CFF0A3EFF0AF2FAE2EAD2DAC2CF6
:1007620090006A120A4E90006EE4F0A304F0E4A333
:10077200F0A3F0AE38AF39FC7D181209B1AC06AD6A
:1007820007E41208E5E4FBFAF9783F1207EF1209D1
:100792001E900068EEF0A3EFF0AE3AAF3B7C007D16
:1007A200181209B1AC06AD07E41208E5E4FBFAF948
:1007B200783F1207EF12091E900066EEF0A3EFF0E9
:1007C2002290006FE004F0700690006EE004F0E406
:1007D200900070F0A3F022900071E004F070069097
:0507E2000070E004F0CE
:0107E70022EF
:1011110053C8FE53C90F43C9D043C9084392104372
:0C11210093035393FE53F1F043F10822B6
:0712CE0043B32053B4DF22FB
:0C1287001212CE121111439B04D2CA2295
:03006300020F6029
:100F6000C0E0C0F0C083C082C0D075D000C000C057
:0B0F700002C003C004C005C006C0079B
:100F7B00E59230E00E5392FEAFE5EFFEADE4EDFFF0
:030F8B00120DE95B
:100F8E00D007D006D005D004D003D002D000D0D0E8
:090F9E00D082D083D0F0D0E03203
:1007E80002098AE86480F8E933E83360110460F0AC
:1007F800ED33EC337009E8FCE9FDEAFEEBFF220477
:1008080060DED3EB9FEA9EE99DE8C2E78CF0C2F771
:1008180095F0400CE8CCF8E9CDF9EACEFAEBCFFB3D
:1008280012095585D0F05804700320D5B3E8047038
:10083800075002B2D502099492D5EC0460F7E4CCD3
:10084800C0E0C398F8603B94186008400DD0E0FB06
:1008580002096CE4FBFAC9FC8028E830E406E4C924
:10086800FBE4CAFCE830E305E4C9CACBFCE854075A
:100878006010F8C3E913F9EA13FAEB13FBEC13FC65
:10088800D8F130F52FC3E49CFCEF9BFFEE9AFEED08
:1008980099FDD0E0FBEF4E4D4C701222DB030209AC
:1008A80091EC2CFCEF33FFEE33FEED33FDED30E73A
:1008B800EB02096CEF2BFFEE3AFEED39FDD0E0FBC1
:1008C80050130BBB0003020994ED13FDEE13FEEF6A
:0808D80013FFEC13FC02096C94
:1008E00075F020800E75F010800575F0087D007E93
:1008F000007F003392D530D503120A1CEC33401030
:10090000EF33FFEE33FEED33FDEC33FCD5F0ED229B
:0E091000E5F0247EA2D513CC92E7CDCEFF22D7
:10091E00EDD2E7CD33EC3392D524814006E4FFFED1
:10092E00FDFC22FCE4CFCECDCC24E0501174FF8030
:10093E00EDC3CC13CCCD13CDCE13CECF13CF0470CD
:07094E00F030D5DE020A1CA7
:10095500E9D2E7C933E833F892D5EDD2E7CD33ECE8
:0709650033FC5002B2D52261
:10096C00EC30E7100FBF000C0EBE00080DBD0004EC
:10097C000BEB6014A2D5EB13FCED92E7FD2274FF98
:10098C00FCFDFEFF22E480F8A2D574FF13FC7D80F1
:03099C00E480EF05
:100C8400020003E493A3F8E493A34003F68001F283
:100C940008DFF48029E493A3F85407240CC8C33371
:100CA400C4540F4420C8834004F456800146F6DF40
:100CB400E4800B0102040810204080900A91E47E35
:100CC400019360BCA3FF543F30E509541FFEE49335
:100CD400A360010ECF54C025E060A840B8E493A3FC
:100CE400FAE493A3F8E493A3C8C582C8CAC583CA27
:100CF400F0A3C8C582C8CAC583CADFE9DEE780BEDF
:010BAE000046
:10099F00EF8DF0A4A8F0CF8CF0A428CE8DF0A42E6C
:0209AF00FE2226
:1009B100BC000BBE0029EF8DF084FFADF022E4CC2A
:1009C100F875F008EF2FFFEE33FEEC33FCEE9DECF3
:1009D100984005FCEE9DFE0FD5F0E9E4CEFD22ED39
:1009E100F8F5F0EE8420D21CFEADF075F008EF2F83
:1009F100FFED33FD4007985006D5F0F222C398FD74
:050A01000FD5F0EA2210
:100A0600C5F0F8A3E028F0C5F0F8E582158270027B
:060A16001583E038F02218
:0E0A1C00C3E49FFFE49EFEE49DFDE49CFC22EB
:100A2A00EB9FF5F0EA9E42F0E99D42F0E89C45F022
:010A3A002299
:100A3B00E8600FEFC333FFEE33FEED33FDEC33FC19
:030A4B00D8F122BD
:0C0A4E00ECF0A3EDF0A3EEF0A3EFF0221B
:100A5A00A8828583F0D083D082120A71120A711299
:100A6A000A71120A71E473E493A3C583C5F0C583BE
:100A7A00C8C582C8F0A3C583C5F0C583C8C582C8E6
:010A8A002249
:060A8B008A838982E473F6
:00000001FF
