:100AA400023400000236000002380000023A00005E
:040AB400023C000000
:10152F005389F0438902538EF7758C7B758A7BD272
:06153F00A9D2AFD28C22FC
:1015700053890F438910538E7F758DF5758B95D2E6
:04158000ABD28E223A
:03001B000215F4D7
:0A15F400758DF5758B95752E01328B
:03000B00020E5D85
:0B0E5D00C0E0C0D075D000C006C00788
:100E68000535E535700205340537E5377002053676
:100E78000539E53970020538053BE53B7002053A4E
:100E8800C3E5359464E5349400400975340075353C
:100E980000753101C3E53B9464E53A940040097557
:100EA8003A00753B00752F01C37410953DFF7427F8
:100EB800953CFEC3E5399FE5389E400F753C237588
:100EC8003D28753800753900753301C3E53794E856
:0F0ED800E5369403400975360075370075320111
:090EE700D007D006D0D0D0E032D3
:100AB8004B00C10000000000000000000000012EF3
:100AC80000013100013200013300012F0001300024
:0D0AD800012900012A00012B00022C000062
:10131C009000C9E0FEA3E0FF64074E700A9000C97C
:10132C00F0A37464F08015BE0204BF580122900033
:10133C00CAE02464F09000C9E03400F07B017D0A1F
:0A134C007C007F0A7E001214972235
:101356009000C9E0FEA3E0FF64074E700122EF642F
:10136600644E700A9000C9F0A37407F0800E9000D6
:10137600CAE0249CF09000C9E034FFF07B017D0AAE
:0A1386007C007F0A7E0012149722FB
:1010CE00E53060599000CBE09000ADF09000C4E0A8
:1010DE00FCA3E0FDA3E0FEA3E0FF7810120A3B9014
:1010EE0000AEEFF09000C4E0FCA3E0FDA3E0FEA391
:1010FE00E0FF7808120A3B9000AFEFF09000C4A317
:10110E00A3A3E09000B0F09000C9E0FCA3E0FDECDA
:0E111E009000B1F0A3EDF01215DCE4F53022E4
:100D950012143D9000ADE09000C3F09000CBF090B0
:100DA50000AFE0FFE4FCFDFE7808120A4EC004C067
:100DB50005C006C0079000AEE0FFE4FCFDFE78101C
:100DC500120A4ED003D002D001D000EF4BFBEE4A01
:100DD500FAED49F9EC48F89000B0E0FFEB4FFFEA77
:100DE500FEE9FDE8FC9000C4120A619000B1E0FE46
:100DF500A3E0FDEDFF9000C9EEF0A3EFF09000C376
:100E0500E0F4602574FFFFFEFD7C00A3E0F8A3E09D
:100E1500F9A3E0FAA3E0FBC3120A2A600C9000C90B
:100E2500E0B4FF20A3E0B4FF1BE49000C3F0900002
:100E3500CBF09000C9F0A37407F09000C4120A6DBE
:100E4500000000009000C3E0700302162D9000C35F
:080E5500E0B40103121627228C
:0716190043B18053B27F22B0
:101188009000C3E0640170459000C2E004F070066E
:101198009000C1E004F0308731E529700975290114
:1011A8009000C1F0A3F09000C9E0FEA3E0FFC39057
:1011B80000C2E09F9000C1E09E4012E4F0A3F0F569
:1011C80029C2849000C804F08003E4F5299000C87F
:0711D800E07004A28792847D
:0111DF0022ED
:10128E00E52BC39403400C052BE52BD3940F4003A1
:10129E00E4F52B9000C8E0602DE52BC39403502697
:1012AE00A287308401B3500AE52A7006752A01C25E
:1012BE008322E52AB40108E4F52AD283052B22E421
:0612CE00F52B9000C8F0B2
:0112D40022F7
:1013EF00E5316006E4F531120003E5336006E4F5FC
:1013FF0033121188E5326006E4F53212128EE52FB2
:09140F006006E4F52F1211E02241
:100F7C009000C3E06402707290006EE07004A3E015
:100F8C00640A70279000CBE0700D7B047D1EFC7F03
:100F9C001EFE1214B180149000CBE0B4010D7B0442
:100FAC007D1E7C007F1E7E00121497C390006FE0A4
:100FBC00940A90006EE094004030900071E094969A
:100FCC00900070E09400402290006AE0FCA3E0FDE9
:100FDC00A3E0FEA3E0FF9000C4120A611214FD907E
:0B0FEC0000CBE09000C3F07530012244
:100BCC00052DE52D7002052C9000C3E0FF6402702A
:100BDC0003020CCBEF64037003020CCBA3E0FCA369
:100BEC00E0FDA3E0FEA3E0FF90006AE0F8A3E0F9CB
:100BFC00A3E0FAA3E0FBC3120A2A7036D390006F6D
:100C0C00E0940090006EE0940040279000C3E070E8
:100C1C000D7B017D05FC7F05FE1214B18014900044
:100C2C00C3E0B4010D7B017D057C007F057E0012C5
:100C3C00149790006EE07004A3E06401702890009B
:100C4C00C4E0FCA3E0FDA3E0FEA3E0FF90006AE09B
:100C5C00F8A3E0F9A3E0FAA3E0FBC3120A2A70069A
:100C6C00C283F52CF52DC3900071E0949690007022
:100C7C00E09400404A90006FE0940190006EE09484
:100C8C0000403C9000C4E0FCA3E0FDA3E0FEA3E028
:100C9C00FF90006AE0F8A3E0F9A3E0FAA3E0FB12EE
:100CAC000A2A701BD283D3E52D94C4E52C940950E9
:0F0CBC000BA287B392849000C87401F01214FD4C
:010CCB002206
:1015BD00E52E600CE4F52E120512120F7C120BCCE9
:0115CD0022FB
:10155B00121610121584121619120D951215E81287
:05156B00157002152FB0
:0915FE002095037F01227F0022E9
:091607002097037F01227F0022DD
:0C000E009000C3E06003B40102C2832232
:10145E009000C3E0FF64026014EFB4030302131C98
:0E146E00A287B39284D2839000C87401F0224A
:10001E009000C3E06402702F9000CBE09000C3F01C
:10002E00700D7B027D14FC7F14FE1214B1801490AF
:10003E0000C3E0B4010D7B027D147C007F147E00B2
:10004E00121497753001229000C3E0B4030312130B
:02005E00562228
:10147C009000C3E0FF64026011EFB4030B9000CB4B
:0B148C00E09000C3F002162DD2832276
:101238009000C3E06403702F9000CBE09000C3F0EF
:10124800700D7B027D14FC7F14FE1214B180149083
:1012580000C3E0B4010D7B027D147C007F147E0086
:10126800121497753001229000C3E064026016746E
:1012780002F0A3120A6D000000007D0A7C007F0ABC
:061288007E001214E422B6
:101390009000C3E0B40112E4F09000CBF0C284905E
:1013A00000C804F012162D80159000C3E0701204DE
:1013B000F09000CBF0C2849000C8F0121627753070
:0213C000012208
:1014CB009000C3E0640260107403F07B027D147C17
:0914DB00007F147E001214972218
:100FF700750BFF750C00750D0E750EFF750F1475CB
:10100700105E7511FF75121475137C751400751534
:10101700007516007517FF7518137519907BFF7A01
:101027001579FE120CCC750B00750C00750D00754B
:101037000EFF750F0075101E7511FF7512127513CF
:10104700387514007515007516007517FF75181497
:0C1057007519CB7BFF7A167907020CCCD0
:1015840043B3A053B45F53B1E743B218D283C284C8
:03159400020FF74C
:03000000020EF0FD
:0C0EF000787FE4F6D8FD75813E020F37D4
:0E15CE0012155B1213EF1215BD1210CE80F530
:100AE5006027007200000000000000000000000008
:100AF50000000000000000000000000000000000F1
:100B050000000000000000000000005400990000F3
:100B150000000000000000000000000000000000D0
:020B25000000CE
:10112C00E4F508F509F509E50975F013A42472F541
:10113C0082E43400F583E0FBA3E0FAA3E0F9EA498A
:10114C004B602DE50975F013A42472F582E434008C
:10115C00F583A3E0FAA3E0F9120A9EBF0112E50998
:10116C0075F013A42484F582E43400F583E042087E
:0B117C000509E509C3940240AEAF086E
:011187002245
:100CCC007F01900098E0FEC3940240021F22900026
:100CDC0098E0FD75F013A42472F582E43400F583DA
:100CEC00EBF0A3EAF0A3E9F0ED75F013A42475F58D
:100CFC0082E43400F583E50BF0A3E50CF0A3E50DDD
:100D0C00F0ED75F013A42478F582E43400F583E556
:100D1C000EF0A3E50FF0A3E510F0ED75F013A4248D
:100D2C007BF582E43400F583E511F0A3E512F0A322
:100D3C00E513F0ED75F013A4247EF582E43400F590
:100D4C0083E514F0A3E515F0A3E516F0ED75F013AB
:100D5C00A42481F582E43400F583E517F0A3E518AB
:100D6C00F0A3E519F0EFA805088002C333D8FCFF07
:100D7C00EE75F013A42484F582E43400F583EFF0CF
:080D8C00900098E004F07F01E3
:010D9400223C
:100066008F0C8D0DE50D75F00AA4249EF582E434FF
:1000760000F583E004F0E50D75F00AA4249FF582EF
:10008600E43400F583E004F0E50C6017E50D75F047
:100096000AA4249DF582E43400F583E0650C700320
:1000A600020264E50D75F00AA4249BF582E434008F
:1000B600F583E0FEA3E0C39402EE94005019E50D2B
:1000C60075F00AA4249BF582E43400F583E475F008
:1000D60001120A06020416E50D75F00AA42499F524
:1000E60082E43400F583E0FEA3E0C39458EE940264
:1000F6004040E50D75F00AA424A2F582E43400F52B
:1001060083E4F0E50D75F013A4247EF582E4340053
:10011600F583E0FBA3E0FAA3E0F9EA494B7003029A
:10012600023CE50D75F013A4247EF582E43400024A
:100136000231E50D75F00AA42499F582E43400F540
:1001460083E0FEA3E0C39402EE9400500302023C57
:10015600E50D75F013A42481F582E43400F583E0FF
:10016600FBA3E0FAA3E0F9EA494B7003020208E5B3
:100176000D75F00AA424A2F582E43400F583E0B4F8
:100186000114E50D75F00AA424A2F582E43400F505
:1001960083E4F002023CE50D75F00AA424A1F58281
:1001A600E43400F583E0B40134E50D75F013A424BE
:1001B60078F582E43400F583E0FBA3E0FAA3E0F9E6
:1001C600EA494B6018E50D75F013A42478F582E42E
:1001D6003400F583A3E0FAA3E0F9120A9EE50D7553
:1001E600F00AA4249FF582E43400F583E4F0E50DDB
:1001F60075F00AA424A1F582E43400F5837401F0B5
:100206008034E50D75F013A42478F582E43400F506
:1002160083E0FBA3E0FAA3E0F9EA494B6018E50D99
:1002260075F013A42478F582E43400F583A3E0FA8C
:10023600A3E0F9120A9EE50D75F00AA4249DF58245
:10024600E43400F583E50CF0E50D75F00AA4249975
:10025600F582E43400F583E4F0A3F0020416E50D1C
:1002660075F00AA42499F582E43400F583E475F068
:1002760001120A06E50D75F00AA42499F582E43404
:1002860000F583E0FEA3E064024E60030203B5E5D9
:100296000D75F00AA4249BF582E43400F583E4F09E
:1002A600A3F0E50D75F013A42481F582E43400F57E
:1002B60083E0FBA3E0FAA3E0F9EA494B70030203EB
:1002C6008AE50D75F00AA424A1F582E43400F583CD
:1002D600E064017078E50D75F00AA4249EF582E4C9
:1002E6003400F583E0C3941E5063E50D75F00AA44F
:1002F60024A2F582E43400F5837401F0E50D75F06F
:100306000AA424A1F582E43400F583E4F0E50D7532
:10031600F00AA424A0F582E43400F583E4F0E50DA8
:1003260075F013A42481F582E43400F583E0FBA381
:10033600E0FAA3E0F9EA494B7003020416E50D75ED
:10034600F013A42481F582E4340002040BE50D7554
:10035600F00AA424A2F582E43400F583E4F0E50D66
:1003660075F00AA424A0F582E43400F5837401F044
:10037600E50D75F00AA4249EF582E43400F583E4C5
:10038600F0020416E50D75F013A42475F582E43425
:1003960000F583E0FBA3E0FAA3E0F9EA494B6070BD
:1003A600E50D75F013A42475F582E434008056E556
:1003B6000D75F00AA42499F582E43400F583E0FE75
:1003C600A3E064587003EE64027045E50D75F00A0B
:1003D600A424A2F582E43400F583E4F0E50D75F07B
:1003E60013A4247BF582E43400F583E0FBA3E0FA52
:1003F600A3E0F9EA494B6018E50D75F013A4247BD8
:10040600F582E43400F583A3E0FAA3E0F9120A9E2C
:10041600E50D75F013A42481F582E43400F583E03C
:10042600FBA3E0FAA3E0F9EA494B7003020511E5E4
:100436000D75F00AA424A0F582E43400F583E06487
:1004460001705AE50D75F00AA4249EF582E4340085
:10045600F583E0C3941E4045E50D75F00AA424A07B
:10046600F582E43400F583E4F0E50D75F013A42479
:1004760075F582E43400F583E0FBA3E0FAA3E0F926
:10048600EA494B6018E50D75F013A42475F582E46E
:100496003400F583A3E0FAA3E0F9120A9EE50D7590
:1004A600F00AA424A1F582E43400F583E064017027
:1004B6005AE50D75F00AA4249FF582E43400F5830D
:1004C600E0C3941E4045E50D75F00AA424A1F5820B
:1004D600E43400F583E4F0E50D75F013A42478F513
:1004E60082E43400F583E0FBA3E0FAA3E0F9EA49ED
:1004F6004B6018E50D75F013A42478F582E43400FA
:0C050600F583A3E0FAA3E0F9120A9E229C
:0213C2008F0892
:1013C400E4F509750A01F50BF509AF09E50AA80763
:1013D400088002C333D8FC5508F50BAD09FF120091
:0A13E400660509E509C3940240E024
:0113EE0022DC
:08000300E4FF12112C0213C2EC
:100B27000F1A000000000000000000000000000095
:010B370000BD
:0916100053B1DF43B220C2852270
:1011E000E520640270510522E52270020521C395B5
:1011F00024E5219523404030850E851C23851D2440
:10120000E52860100526800C851A23851B24E52718
:1012100060020525B285E4F521F522E528600AE59E
:1012200026C3951F4003E4F520E527600AE525C3A2
:08123000951E40037520012208
:1014E4007520028E1A8F1B8C1C8D1DE4F51EF51FB2
:0914F400F525F526F527F528225F
:101497007520028E1A8F1B8C1C8D1D8B1EE4F51F69
:0A14A700F525F526752701F528222A
:1014B1007520028E1A8F1B8C1C8D1DE4F51E8B1F4F
:0A14C100F525F526F5277528012210
:06162700D28575200122AE
:06162D00C285E4F5202255
:100B38005400ADFF000000000000000000000000AD
:070B480000000000000000A6
:1015970075C7AA75C755439F0175C7AA75C7554330
:0315A700A5012279
:1015450075AF2275A738E4F5A675AEFF75C7AA7500
:06155500C75543A401226A
:1015AA0075C7AA75C75553A5FE75C7AA75C75553FA
:0315BA009FFE226F
:10141800E4FF75AF2175A7388FA674AD2FF582E468
:101428003400F583E0F5AE75C7AA75C75543A40126
:041438000FBF14DEF0
:01143C00228D
:10143D00E4FDED2400FFE434388F82F583E493FF5F
:10144D0074AD2DF582E43400F583EFF00DBD14E29B
:01145D00226C
:0C15DC001215971215451214180215AADA
:100B4F0060640000000000000000000000000000D2
:100B5F000000000000000000000000000000000086
:100B6F000000000000000000000000000000000076
:100B7F000000000000000000000000000000000066
:100B8F000000000000000000000000000000000056
:100B9F000000000000000000000000000000000046
:100BAF0000000000000000004E0064000000000084
:0C0BBF00000000000000000000013E00EB
:04106300AB07AA0627
:10106700900001E07019C3EB94FAEA9400405730FE
:101077009254A3EAF0A3EBF09000017401F0227CF4
:10108700007D05AF03AE0212099FD3900003E09FD6
:10109700900002E09E4016E53E25E02404F582E438
:1010A7003400F583EAF0A3EBF0053E8007E49000F7
:1010B70001F0F53EE53EC39430400BE4F53E900069
:0610C7000004F0E4A3F0B8
:0110CD002200
:1014FD00E490006EF0A3F090006A120A6D000000F7
:09150D0000E4900064F0A3F02258
:10051200E4F50BF50AF509F508F50CF50DF50EF500
:100522000FF510F511F512F513F514F515F516F58D
:1005320017900000E0640160030207D9F090006E9A
:10054200E07002A3E0702D900004E0FFA3E09000B1
:1005520066CFF0A3EFF0900006E0FFA3E090006802
:10056200CFF0A3EFF0900002E0FFA3E0900064CF91
:10057200F0A3EFF0900068E0FEA3E0FF900067E0D8
:100582002FF50D900066E03EF50CFEAF0D7C007D70
:10059200051209B18E108F11900064E0FEA3E0FFF6
:1005A2007C007D051209B18E128F13E4FBEBC3941C
:1005B200304003020703EB25E02406F582E4340011
:1005C200F583E0FEA3E0FFEB25E02404F582E434AA
:1005D20000F583E0FCA3E0FD2FF50FEC3EF50EE500
:1005E2000D2511FFE50C3510FED3E50F9FE50E9E9C
:1005F2005014C3E50D9511FFE50C9510FEC3E50FF0
:100602009FE50E9E500F900071E004F0700690007E
:1006120070E004F022EB25E02406F582E43400F5D4
:1006220083E0FEA3E0FFD3ED9FEC9E4050AF0BAE04
:100632000AAD09AC087801120A4EEF4401F50BEE3F
:10064200F50AEDF509ECF508EB25E02406F582E460
:100652003400F583E0FEA3E02515F515EE3514F51B
:1006620014EB25E02404F582E43400F583E0FEA3D4
:10067200E02517F517EE3516F5160206FEEB25E016
:100682002406F582E43400F583E0FEA3E0FFEB25C7
:10069200E02404F582E43400F583E0FCA3E0C39F88
:1006A200EC9E5049AF0BAE0AAD09AC087801120AB4
:1006B2004E8F0B8E0A8D098C08EB25E02406F582FD
:1006C200E43400F583E0FEA3E02517F517EE3516B6
:1006D200F516EB25E02404F582E43400F583E0FE10
:1006E200A3E02515F515EE3514F514800F90007171
:1006F200E004F07006900070E004F0220B0B02059B
:10070200AF900002E0FEA3E0FF2511FDE5103EFCE4
:10071200900064E0FAA3E0FBC39DEA9C502BC3EF78
:100722009511FFEE9510FED3EB9FEA9E401B9000C1
:100732006AE0FCA3E0FDA3E0FEA3E0FFAB0BAA0A84
:10074200A909A808120A2A6078900002E0FFA3E033
:10075200900064CFF0A3EFF0AF0BAE0AAD09AC0886
:1007620090006A120A6190006EE4F0A304F0E4A320
:10077200F0A3F0AE14AF15FC7D181209B1AC06ADB2
:1007820007E41208E5E4FBFAF9783F1207EF1209D1
:100792001E900068EEF0A3EFF0AE16AF177C007D5E
:1007A200181209B1AC06AD07E41208E5E4FBFAF948
:1007B200783F1207EF12091E900066EEF0A3EFF0E9
:1007C2002290006FE004F0700690006EE004F0E406
:1007D200900070F0A3F022900071E004F070069097
:0507E2000070E004F0CE
:0107E70022EF
:1015160053C8FE53C90F43C9D043C9084392104369
:0915260093035393FE53F1F022EC
:0716200043B30453B4FB22A5
:0C15E800121620121516439B04D2CA22D2
:030063000212D5B1
:1012D500C0E0C0F0C083C082C0D075D000C000C0DF
:0B12E50002C003C004C005C006C00723
:1012F000E59230E00E5392FEAFE5EFFEADE4EDFF78
:0313000012106365
:10130300D007D006D005D004D003D002D000D0D06F
:09131300D082D083D0F0D0E0328A
:1007E80002098AE86480F8E933E83360110460F0AC
:1007F800ED33EC337009E8FCE9FDEAFEEBFF220477
:1008080060DED3EB9FEA9EE99DE8C2E78CF0C2F771
:1008180095F0400CE8CCF8E9CDF9EACEFAEBCFFB3D
:1008280012095585D0F05804700320D5B3E8047038
:10083800075002B2D502099492D5EC0460F7E4CCD3
:10084800C0E0C398F8603B94186008400DD0E0FB06
:1008580002096CE4FBFAC9FC8028E830E406E4C924
:10086800FBE4CAFCE830E305E4C9CACBFCE854075A
:100878006010F8C3E913F9EA13FAEB13FBEC13FC65
:10088800D8F130F52FC3E49CFCEF9BFFEE9AFEED08
:1008980099FDD0E0FBEF4E4D4C701222DB030209AC
:1008A80091EC2CFCEF33FFEE33FEED33FDED30E73A
:1008B800EB02096CEF2BFFEE3AFEED39FDD0E0FBC1
:1008C80050130BBB0003020994ED13FDEE13FEEF6A
:0808D80013FFEC13FC02096C94
:1008E00075F020800E75F010800575F0087D007E93
:1008F000007F003392D530D503120A1CEC33401030
:10090000EF33FFEE33FEED33FDEC33FCD5F0ED229B
:0E091000E5F0247EA2D513CC92E7CDCEFF22D7
:10091E00EDD2E7CD33EC3392D524814006E4FFFED1
:10092E00FDFC22FCE4CFCECDCC24E0501174FF8030
:10093E00EDC3CC13CCCD13CDCE13CECF13CF0470CD
:07094E00F030D5DE020A1CA7
:10095500E9D2E7C933E833F892D5EDD2E7CD33ECE8
:0709650033FC5002B2D52261
:10096C00EC30E7100FBF000C0EBE00080DBD0004EC
:10097C000BEB6014A2D5EB13FCED92E7FD2274FF98
:10098C00FCFDFEFF22E480F8A2D574FF13FC7D80F1
:03099C00E480EF05
:100EFC000215CEE493A3F8E493A34003F68001F229
:100F0C0008DFF48029E493A3F85407240CC8C333F6
:100F1C00C4540F4420C8834004F456800146F6DFC5
:100F2C00E4800B0102040810204080900AA4E47EA7
:100F3C00019360BCA3FF543F30E509541FFEE493BA
:100F4C00A360010ECF54C025E060A840B8E493A381
:100F5C00FAE493A3F8E493A3C8C582C8CAC583CAAC
:100F6C00F0A3C8C582C8CAC583CADFE9DEE780BE64
:010BCB000029
:10099F00EF8DF0A4A8F0CF8CF0A428CE8DF0A42E6C
:0209AF00FE2226
:1009B100BC000BBE0029EF8DF084FFADF022E4CC2A
:1009C100F875F008EF2FFFEE33FEEC33FCEE9DECF3
:1009D100984005FCEE9DFE0FD5F0E9E4CEFD22ED39
:1009E100F8F5F0EE8420D21CFEADF075F008EF2F83
:1009F100FFED33FD4007985006D5F0F222C398FD74
:050A01000FD5F0EA2210
:100A0600C5F0F8A3E028F0C5F0F8E582158270027B
:060A16001583E038F02218
:0E0A1C00C3E49FFFE49EFEE49DFDE49CFC22EB
:100A2A00EB9FF5F0EA9E42F0E99D42F0E89C45F022
:010A3A002299
:100A3B00E8600FECC313FCED13FDEE13FEEF13FF99
:030A4B00D8F122BD
:100A4E00E8600FEFC333FFEE33FEED33FDEC33FC06
:030A5E00D8F122AA
:0C0A6100ECF0A3EDF0A3EEF0A3EFF02208
:100A6D00A8828583F0D083D082120A84120A841260
:100A7D000A84120A84E473E493A3C583C5F0C58385
:100A8D00C8C582C8F0A3C583C5F0C583C8C582C8D3
:010A9D002236
:060A9E008A838982E473E3
:00000001FF
