:100A9100022C0000022E0000023000000232000091
:10127B005389F0438902538EF7758C7B758A7BD229
:06128B00A9D2AFD28C22B3
:1012A70053890F438910538E7F758DF5758B95D2B2
:0412B700ABD28E2206
:03001B0002133C91
:0A133C00758DF5758B95753601323D
:03000B00020D04DF
:040D0400C0E0C0D0BB
:100D0800052DE52D7002052C052FE52F7002052E07
:100D18000531E531700205300533E53370020532DF
:100D2800C3E52D9464E52C94004009752C00752DBD
:100D380000753801C3E5339464E5329400400975C1
:100D48003200753300753701C3E53194E8E5309416
:100D5800034009753000753100753A01C3E52F94D9
:100D6800E8E52E94034009752E00752F00753901AA
:050D7800D0D0D0E032F4
:100AA1004C00C10000000000000000000000000137
:100AB1003600013800013900013A000137000134E4
:040AC10000013500FB
:10001E009000CAE0FEA3E0FF64074E700A9000CA8B
:10002E00F0A37464F0801FBE020EBF580B9000CA7E
:10003E007402F0A37458F0229000CBE02464F09088
:10004E0000CAE03400F07B017D0A7C007F0A7E004E
:04005E001211FC225D
:101003009000CAE0FEA3E0FF64074E70099000CA97
:10101300F0A37407F022EF64644E700A9000CAF0E4
:10102300A37407F0800E9000CBE0249CF09000CADC
:10103300E034FFF07B017D0A7C007F0A7E00121101
:02104300FC228D
:1012BB00E49000C3F09000CCF09000CAF0A3740748
:0412CB00F002137C9E
:0713610043B18053B27F226B
:100F0C009000C3E0640170459000C2E004F07006EC
:100F1C009000C1E004F0308731E53470097534017C
:100F2C009000C1F0A3F09000CAE0FEA3E0FFC390D4
:100F3C0000C2E09F9000C1E09E4012E4F0A3F0F5E7
:100F4C0034C2849000C904F08003E4F5349000C9E5
:070F5C00E07004A2879284FB
:010F6300226B
:10109C009000C9E06022A287308401B3500AE53584
:1010AC007006753501C28322E535B40106E4F535C9
:0810BC00D28322E49000C9F088
:0110C4002209
:1010C500E5386006E4F538120003E53A6006E4F514
:1010D5003A120F0CE5396006E4F53912109CE53734
:0910E5006006E4F537120F6422E5
:100E54009000C3E06402705390006EE07004A3E05D
:100E6400640A700B7B047D14FC7F14FE121216C3FB
:100E740090006FE0940A90006EE09400402D900082
:100E840071E09496900070E09400401F90006AE036
:100E9400FCA3E0FDA3E0FEA3E0FF9000C4120A4E11
:0C0EA4001212629000CCE09000C3F0221B
:0E131700E5366009E4F536120512120E542276
:101165001212BB1213581213061213617B057D323E
:101175007C007F327E001212161213251212A7026E
:02118500127BDB
:091346002095037F01227F0022A3
:09134F002097037F01227F002298
:1012F5009000C3E0FF64026007EF64036002C283ED
:0113050022C5
:101072009000C3E0B4020B9000CCE09000C3F002F9
:10108200137C9000C3E0B4030302001EA287B39254
:0A10920084D2839000C97401F0229B
:01001A0022C3
:1011A8009000C3E0B4020B9000CCE09000C3F002C2
:0D11B800137C9000C3E0B403031210032267
:1011E1009000C3E0FF64026011EFB4030B9000CCE8
:0B11F100E09000C3F002137CD28322C8
:1010EE009000C3E0B4030B9000CCE09000C3F0027C
:1010FE00137C9000C3E06402600E7402F07D0A7CE3
:09110E00007F0A7E001212492242
:01006200227B
:011382002248
:101117009000C3E0FFB4010EE4F09000CCF0C2846D
:101127009000C904F022EF700F9000C304F0900004
:09113700CCF0C2849000C9F02242
:101230009000C3E0640260107403F07B017D0A7CBF
:09124000007F0A7E001211FC225D
:100D7D00751DFF751E12751FF57520FF75211075F8
:100D8D0022727523FF7524117525E17526FF7527D0
:100D9D00007528627529FF752A11752B177BFF7A4F
:100DAD00137946120BAF751DFF751E00751F1A7551
:100DBD0020FF7521117522A87523FF752410752547
:100DCD00EE7526FF7527137528827529FF752A1272
:0C0DDD00752B307BFF7A13794F020BAFAF
:1013060043B3A053B45F53B1E743B218C284020D8E
:011316007D59
:03000000020C7877
:0C0C7800787FE4F6D8FD75813B020CBFCC
:0B1331001211651210C512131780F88E
:100AC5006027007200000000000000000000000028
:100AD5000000000000000000000000000000000011
:100AE5000000000000000000000000540099000014
:100AF50000000000000000000000000000000000F1
:020B05000000EE
:100EB000E4F51AF51BF51BE51B75F013A42472F578
:100EC00082E43400F583E0FBA3E0FAA3E0F9EA4909
:100ED0004B602DE51B75F013A42472F582E43400F9
:100EE000F583A3E0FAA3E0F9120A8BBF0112E51B18
:100EF00075F013A42484F582E43400F583E0421AEB
:0B0F0000051BE51BC3940240AEAF1AB6
:010F0B0022C3
:100BAF007F01900098E0FEC3940240021F22900044
:100BBF0098E0FD75F013A42472F582E43400F583F8
:100BCF00EBF0A3EAF0A3E9F0ED75F013A42475F5AB
:100BDF0082E43400F583E51DF0A3E51EF0A3E51FC5
:100BEF00F0ED75F013A42478F582E43400F583E575
:100BFF0020F0A3E521F0A3E522F0ED75F013A42476
:100C0F007BF582E43400F583E523F0A3E524F0A31C
:100C1F00E525F0ED75F013A4247EF582E43400F59C
:100C2F0083E526F0A3E527F0A3E528F0ED75F01393
:100C3F00A42481F582E43400F583E529F0A3E52AA5
:100C4F00F0A3E52BF0EFA805088002C333D8FCFF13
:100C5F00EE75F013A42484F582E43400F583EFF0ED
:080C6F00900098E004F07F0101
:010C7700225A
:100066008F1E8D1FE51F75F00AA4249EF582E434C9
:1000760000F583E004F0E51F75F00AA4249FF582DD
:10008600E43400F583E004F0E51E6017E51F75F023
:100096000AA4249DF582E43400F583E0651E70030E
:1000A600020264E51F75F00AA4249BF582E434007D
:1000B600F583E0FEA3E0C39402EE94005019E51F19
:1000C60075F00AA4249BF582E43400F583E475F008
:1000D60001120A06020416E51F75F00AA42499F512
:1000E60082E43400F583E0FEA3E0C39458EE940264
:1000F6004040E51F75F00AA424A2F582E43400F519
:1001060083E4F0E51F75F013A4247EF582E4340041
:10011600F583E0FBA3E0FAA3E0F9EA494B7003029A
:10012600023CE51F75F013A4247EF582E434000238
:100136000231E51F75F00AA42499F582E43400F52E
:1001460083E0FEA3E0C39402EE9400500302023C57
:10015600E51F75F013A42481F582E43400F583E0ED
:10016600FBA3E0FAA3E0F9EA494B7003020208E5B3
:100176001F75F00AA424A2F582E43400F583E0B4E6
:100186000114E51F75F00AA424A2F582E43400F5F3
:1001960083E4F002023CE51F75F00AA424A1F5826F
:1001A600E43400F583E0B40134E51F75F013A424AC
:1001B60078F582E43400F583E0FBA3E0FAA3E0F9E6
:1001C600EA494B6018E51F75F013A42478F582E41C
:1001D6003400F583A3E0FAA3E0F9120A8BE51F7554
:1001E600F00AA4249FF582E43400F583E4F0E51FC9
:1001F60075F00AA424A1F582E43400F5837401F0B5
:100206008034E51F75F013A42478F582E43400F5F4
:1002160083E0FBA3E0FAA3E0F9EA494B6018E51F87
:1002260075F013A42478F582E43400F583A3E0FA8C
:10023600A3E0F9120A8BE51F75F00AA4249DF58246
:10024600E43400F583E51EF0E51F75F00AA4249951
:10025600F582E43400F583E4F0A3F0020416E51F0A
:1002660075F00AA42499F582E43400F583E475F068
:1002760001120A06E51F75F00AA42499F582E434F2
:1002860000F583E0FEA3E064024E60030203B5E5D9
:100296001F75F00AA4249BF582E43400F583E4F08C
:1002A600A3F0E51F75F013A42481F582E43400F56C
:1002B60083E0FBA3E0FAA3E0F9EA494B70030203EB
:1002C6008AE51F75F00AA424A1F582E43400F583BB
:1002D600E064017078E51F75F00AA4249EF582E4B7
:1002E6003400F583E0C3941E5063E51F75F00AA43D
:1002F60024A2F582E43400F5837401F0E51F75F05D
:100306000AA424A1F582E43400F583E4F0E51F7520
:10031600F00AA424A0F582E43400F583E4F0E51F96
:1003260075F013A42481F582E43400F583E0FBA381
:10033600E0FAA3E0F9EA494B7003020416E51F75DB
:10034600F013A42481F582E4340002040BE51F7542
:10035600F00AA424A2F582E43400F583E4F0E51F54
:1003660075F00AA424A0F582E43400F5837401F044
:10037600E51F75F00AA4249EF582E43400F583E4B3
:10038600F0020416E51F75F013A42475F582E43413
:1003960000F583E0FBA3E0FAA3E0F9EA494B6070BD
:1003A600E51F75F013A42475F582E434008056E544
:1003B6001F75F00AA42499F582E43400F583E0FE63
:1003C600A3E064587003EE64027045E51F75F00AF9
:1003D600A424A2F582E43400F583E4F0E51F75F069
:1003E60013A4247BF582E43400F583E0FBA3E0FA52
:1003F600A3E0F9EA494B6018E51F75F013A4247BC6
:10040600F582E43400F583A3E0FAA3E0F9120A8B3F
:10041600E51F75F013A42481F582E43400F583E02A
:10042600FBA3E0FAA3E0F9EA494B7003020511E5E4
:100436001F75F00AA424A0F582E43400F583E06475
:1004460001705AE51F75F00AA4249EF582E4340073
:10045600F583E0C3941E4045E51F75F00AA424A069
:10046600F582E43400F583E4F0E51F75F013A42467
:1004760075F582E43400F583E0FBA3E0FAA3E0F926
:10048600EA494B6018E51F75F013A42475F582E45C
:100496003400F583A3E0FAA3E0F9120A8BE51F7591
:1004A600F00AA424A1F582E43400F583E064017027
:1004B6005AE51F75F00AA4249FF582E43400F583FB
:1004C600E0C3941E4045E51F75F00AA424A1F582F9
:1004D600E43400F583E4F0E51F75F013A42478F501
:1004E60082E43400F583E0FBA3E0FAA3E0F9EA49ED
:1004F6004B6018E51F75F013A42478F582E43400E8
:0C050600F583A3E0FAA3E0F9120A8B22AF
:021045008F1A00
:10104700E4F51B751C01F51DF51BAF1BE51CA80777
:10105700088002C333D8FC551AF51DAD1BFF1200DB
:0A10670066051BE51BC3940240E080
:01107100225C
:08000300E4FF120EB0021045EB
:100B070012080000000000000000000000000000C4
:040B170000000000DA
:0913580053B1DF43B220C285222B
:100F6400E50E640270510513E51370020512C39572
:100F740015E5129514404030850E850A14850B152D
:100F8400E51960100517800C850814850915E51806
:100F940060020516B285E4F512F513E519600AE559
:100FA40017C3950D4003E4F50EE518600AE516C372
:080FB400950C4003750E0122AB
:10124900750E028E088F098C0A8D0BE4F50CF50DCD
:09125900F516F517F518F5192238
:1011FC00750E028E088F098C0A8D0B8B0CE4F50D85
:0A120C00F516F517751801F5192203
:10121600750E028E088F098C0A8D0BE4F50C8B0D6A
:0A122600F516F517F51875190122E9
:06137600D285750E012274
:06137C00C285E4F50E221B
:071368008B0F8A108911228E
:100B1B005400ADFF000000000000000000000000CA
:070B2B0000000000000000C3
:1012CF0075C7AA75C755439F0175C7AA75C75543FB
:0312DF00A5012244
:1012910075AF2275A738E4F5A675AEFF75C7AA75B7
:0612A100C75543A4012221
:1012E20075C7AA75C75553A5FE75C7AA75C75553C5
:0312F2009FFE223A
:10114000E4FF75AF2175A7388FA674AD2FF582E443
:101150003400F583E0F5AE75C7AA75C75543A40101
:041160000FBF14DECB
:011164002268
:10118700E4FDED2400FFE434388F82F583E493FF18
:1011970074AD2DF582E43400F583EFF00DBD14E254
:0111A7002225
:0C000E001212CF1212911211400212E2E5
:100B320060640000000000000000000000000000EF
:100B420000000000000000000000000000000000A3
:100B52000000000000000000000000000000000093
:100B62000000000000000000000000000000000083
:100B72000000000000000000000000000000000073
:100B82000000000000000000000000000000000063
:100B920000000000000000004E00640000000000A1
:0C0BA200000000000000000000013B000B
:040DE900AB07AA06A4
:100DED00900001E07019C3EB94FAEA94004057307B
:100DFD009554A3EAF0A3EBF09000017401F0227C6E
:100E0D00007D05AF03AE0212099FD3900003E09F52
:100E1D00900002E09E4016E53B25E02404F582E4B7
:100E2D003400F583EAF0A3EBF0053B8007E4900076
:100E3D0001F0F53BE53BC39430400BE4F53B9000EE
:060E4D000004F0E4A3F034
:010E5300227C
:10126200E490006EF0A3F090006A120A5A000000A7
:0912720000E4900064F0A3F022F6
:10051200E4F51DF51CF51BF51AF51EF51FF520F582
:1005220021F522F523F524F525F526F527F528F5FD
:1005320029900000E0640160030207D9F090006E88
:10054200E07002A3E0702D900004E0FFA3E09000B1
:1005520066CFF0A3EFF0900006E0FFA3E090006802
:10056200CFF0A3EFF0900002E0FFA3E0900064CF91
:10057200F0A3EFF0900068E0FEA3E0FF900067E0D8
:100582002FF51F900066E03EF51EFEAF1F7C007D3A
:10059200051209B18E228F23900064E0FEA3E0FFD2
:1005A2007C007D051209B18E248F25E4FBEBC394F8
:1005B200304003020703EB25E02406F582E4340011
:1005C200F583E0FEA3E0FFEB25E02404F582E434AA
:1005D20000F583E0FCA3E0FD2FF521EC3EF520E5DC
:1005E2001F2523FFE51E3522FED3E5219FE5209E30
:1005F2005014C3E51F9523FFE51E9522FEC3E52196
:100602009FE5209E500F900071E004F0700690006C
:1006120070E004F022EB25E02406F582E43400F5D4
:1006220083E0FEA3E0FFD3ED9FEC9E4050AF1DAEF2
:100632001CAD1BAC1A7801120A3BEF4401F51DEE0A
:10064200F51CEDF51BECF51AEB25E02406F582E42A
:100652003400F583E0FEA3E02527F527EE3526F5E5
:1006620026EB25E02404F582E43400F583E0FEA3C2
:10067200E02529F529EE3528F5280206FEEB25E0CE
:100682002406F582E43400F583E0FEA3E0FFEB25C7
:10069200E02404F582E43400F583E0FCA3E0C39F88
:1006A200EC9E5049AF1DAE1CAD1BAC1A7801120A6C
:1006B2003B8F1D8E1C8D1B8C1AEB25E02406F582C8
:1006C200E43400F583E0FEA3E02529F529EE352880
:1006D200F528EB25E02404F582E43400F583E0FEFE
:1006E200A3E02527F527EE3526F526800F90007129
:1006F200E004F07006900070E004F0220B0B02059B
:10070200AF900002E0FEA3E0FF2523FDE5223EFCC0
:10071200900064E0FAA3E0FBC39DEA9C502BC3EF78
:100722009523FFEE9522FED3EB9FEA9E401B90009D
:100732006AE0FCA3E0FDA3E0FEA3E0FFAB1DAA1C60
:10074200A91BA81A120A2A6078900002E0FFA3E00F
:10075200900064CFF0A3EFF0AF1DAE1CAD1BAC1A3E
:1007620090006A120A4E90006EE4F0A304F0E4A333
:10077200F0A3F0AE26AF27FC7D181209B1AC06AD8E
:1007820007E41208E5E4FBFAF9783F1207EF1209D1
:100792001E900068EEF0A3EFF0AE28AF297C007D3A
:1007A200181209B1AC06AD07E41208E5E4FBFAF948
:1007B200783F1207EF12091E900066EEF0A3EFF0E9
:1007C2002290006FE004F0700690006EE004F0E406
:1007D200900070F0A3F022900071E004F070069097
:0507E2000070E004F0CE
:0107E70022EF
:1011C50053C8FE53C90F43C9D043C90843921043BE
:0C11D50093035393FE53F1F043F1082202
:07136F0043B32053B4DF2259
:0C13250012136F1211C5439B04D2CA22A0
:03006300020FBCCD
:100FBC00C0E0C0F0C083C082C0D075D000C000C0FB
:0B0FCC0002C003C004C005C006C0073F
:100FD700E59230E00E5392FEAFE5EFFEADE4EDFF94
:030FE700120DE9FF
:100FEA00D007D006D005D004D003D002D000D0D08C
:090FFA00D082D083D0F0D0E032A7
:1007E80002098AE86480F8E933E83360110460F0AC
:1007F800ED33EC337009E8FCE9FDEAFEEBFF220477
:1008080060DED3EB9FEA9EE99DE8C2E78CF0C2F771
:1008180095F0400CE8CCF8E9CDF9EACEFAEBCFFB3D
:1008280012095585D0F05804700320D5B3E8047038
:10083800075002B2D502099492D5EC0460F7E4CCD3
:10084800C0E0C398F8603B94186008400DD0E0FB06
:1008580002096CE4FBFAC9FC8028E830E406E4C924
:10086800FBE4CAFCE830E305E4C9CACBFCE854075A
:100878006010F8C3E913F9EA13FAEB13FBEC13FC65
:10088800D8F130F52FC3E49CFCEF9BFFEE9AFEED08
:1008980099FDD0E0FBEF4E4D4C701222DB030209AC
:1008A80091EC2CFCEF33FFEE33FEED33FDED30E73A
:1008B800EB02096CEF2BFFEE3AFEED39FDD0E0FBC1
:1008C80050130BBB0003020994ED13FDEE13FEEF6A
:0808D80013FFEC13FC02096C94
:1008E00075F020800E75F010800575F0087D007E93
:1008F000007F003392D530D503120A1CEC33401030
:10090000EF33FFEE33FEED33FDEC33FCD5F0ED229B
:0E091000E5F0247EA2D513CC92E7CDCEFF22D7
:10091E00EDD2E7CD33EC3392D524814006E4FFFED1
:10092E00FDFC22FCE4CFCECDCC24E0501174FF8030
:10093E00EDC3CC13CCCD13CDCE13CECF13CF0470CD
:07094E00F030D5DE020A1CA7
:10095500E9D2E7C933E833F892D5EDD2E7CD33ECE8
:0709650033FC5002B2D52261
:10096C00EC30E7100FBF000C0EBE00080DBD0004EC
:10097C000BEB6014A2D5EB13FCED92E7FD2274FF98
:10098C00FCFDFEFF22E480F8A2D574FF13FC7D80F1
:03099C00E480EF05
:100C8400021331E493A3F8E493A34003F68001F242
:100C940008DFF48029E493A3F85407240CC8C33371
:100CA400C4540F4420C8834004F456800146F6DF40
:100CB400E4800B0102040810204080900A91E47E35
:100CC400019360BCA3FF543F30E509541FFEE49335
:100CD400A360010ECF54C025E060A840B8E493A3FC
:100CE400FAE493A3F8E493A3C8C582C8CAC583CA27
:100CF400F0A3C8C582C8CAC583CADFE9DEE780BEDF
:010BAE000046
:10099F00EF8DF0A4A8F0CF8CF0A428CE8DF0A42E6C
:0209AF00FE2226
:1009B100BC000BBE0029EF8DF084FFADF022E4CC2A
:1009C100F875F008EF2FFFEE33FEEC33FCEE9DECF3
:1009D100984005FCEE9DFE0FD5F0E9E4CEFD22ED39
:1009E100F8F5F0EE8420D21CFEADF075F008EF2F83
:1009F100FFED33FD4007985006D5F0F222C398FD74
:050A01000FD5F0EA2210
:100A0600C5F0F8A3E028F0C5F0F8E582158270027B
:060A16001583E038F02218
:0E0A1C00C3E49FFFE49EFEE49DFDE49CFC22EB
:100A2A00EB9FF5F0EA9E42F0E99D42F0E89C45F022
:010A3A002299
:100A3B00E8600FEFC333FFEE33FEED33FDEC33FC19
:030A4B00D8F122BD
:0C0A4E00ECF0A3EDF0A3EEF0A3EFF0221B
:100A5A00A8828583F0D083D082120A71120A711299
:100A6A000A71120A71E473E493A3C583C5F0C583BE
:100A7A00C8C582C8F0A3C583C5F0C583C8C582C8E6
:010A8A002249
:060A8B008A838982E473F6
:00000001FF
