:100AA4000233000002350000023700000239000062
:1014F3005389F0438902538EF7758C7B758A7BD2AF
:06150300A9D2AFD28C2238
:1015340053890F438910538E7F758DF5758B95D222
:04154400ABD28E2276
:03001B000215B813
:0A15B800758DF5758B95752D0132C8
:03000B00020F5D84
:040F5D00C0E0C0D060
:100F61000534E534700205330536E5367002053582
:100F71000538E53870020537053AE53A700205395A
:100F8100C3E5349464E53394004009753300753446
:100F910000753001C3E53A9464E539940040097560
:100FA1003900753A00752E01C3E53894E8E53794A8
:100FB100034009753700753800753201C3E5369471
:100FC100E8E5359403400975350075360075310142
:050FD100D0D0D0E03299
:100AB4004B00C10000000000000000000000012DF8
:100AC40000013000013100013200012E00012F002D
:0A0AD400012900012A00022B000096
:1012B4009000C9E0FEA3E0FF64074E700A9000C9E5
:1012C400F0A37464F08015BE0204BF58012290009C
:1012D400CAE02464F09000C9E03400F07B017D0A88
:0A12E4007C007F0A7E0012147422C1
:1012EE009000C9E0FEA3E0FF64074E700122EF6498
:1012FE00644E700A9000C9F0A37407F0800E90003F
:10130E00CAE0249CF09000C9E034FFF07B017D0A16
:0A131E007C007F0A7E001214742286
:1010AD00E52F60599000CBE09000ADF09000C4E0CA
:1010BD00FCA3E0FDA3E0FEA3E0FF7810120A3B9035
:1010CD0000AEEFF09000C4E0FCA3E0FDA3E0FEA3B2
:1010DD00E0FF7808120A3B9000AFEFF09000C4A338
:1010ED00A3A3E09000B0F09000C9E0FCA3E0FDECFC
:0E10FD009000B1F0A3EDF01215A0E4F52F2243
:100D8E001213FE9000ADE09000C3F09000CBF090F7
:100D9E0000AFE0FFE4FCFDFE7808120A4EC004C06E
:100DAE0005C006C0079000AEE0FFE4FCFDFE781023
:100DBE00120A4ED003D002D001D000EF4BFBEE4A08
:100DCE00FAED49F9EC48F89000B0E0FFEB4FFFEA7E
:100DDE00FEE9FDE8FC9000C4120A619000B1E0FE4D
:100DEE00A3E0FDEDFF9000C9EEF0A3EFF09000C37D
:100DFE00E0F4602574FFFFFEFD7C00A3E0F8A3E0A5
:100E0E00F9A3E0FAA3E0FBC3120A2A600C9000C912
:100E1E00E0B4FF20A3E0B4FF1BE49000C3F0900009
:100E2E00CBF09000C9F0A37407F09000C4120A6DC5
:100E3E00000000009000C3E070030215F19000C3A3
:080E4E00E0B401031215EB22D0
:0715DD0043B18053B27F22ED
:101167009000C3E0640170459000C2E004F070068F
:101177009000C1E004F0308731E529700975290135
:101187009000C1F0A3F09000C9E0FEA3E0FFC39078
:1011970000C2E09F9000C1E09E4012E4F0A3F0F58A
:1011A70029C2849000C804F08003E4F5299000C8A0
:0711B700E07004A28792849E
:0111BE00220E
:101387009000C8E06022A287308401B3500AE52AA2
:101397007006752A01C28322E52AB40106E4F52AFC
:0813A700D28322E49000C8F09B
:0113AF00221B
:1013B000E5306006E4F530120003E5326006E4F53E
:1013C00032121167E5316006E4F531121387E52E1C
:0913D0006006E4F52E1211BF22A3
:100EE2009000C3E06402707290006EE07004A3E0B0
:100EF200640A70279000CBE0700D7B047D1EFC7F9E
:100F02001EFE12148E80149000CBE0B4010D7B04FF
:100F12007D1E7C007F1E7E00121474C390006FE061
:100F2200940A90006EE094004030900071E0949634
:100F3200900070E09400402290006AE0FCA3E0FD83
:100F4200A3E0FEA3E0FF9000C4120A611214DA903B
:0B0F520000CBE09000C3F0752F0122DF
:100BC500052CE52C7002052B9000C3E0FF64027034
:100BD50003020CC4EF64037003020CC4A3E0FCA37E
:100BE500E0FDA3E0FEA3E0FF90006AE0F8A3E0F9D2
:100BF500A3E0FAA3E0FBC3120A2A7036D390006F74
:100C0500E0940090006EE0940040279000C3E070EF
:100C15000D7B017D05FC7F05FE12148E801490006E
:100C2500C3E0B4010D7B017D057C007F057E0012CC
:100C3500147490006EE07004A3E0640170289000C5
:100C4500C4E0FCA3E0FDA3E0FEA3E0FF90006AE0A2
:100C5500F8A3E0F9A3E0FAA3E0FBC3120A2A7006A1
:100C6500C283F52BF52CC3900071E094969000702B
:100C7500E09400404A90006FE0940190006EE0948B
:100C850000403C9000C4E0FCA3E0FDA3E0FEA3E02F
:100C9500FF90006AE0F8A3E0F9A3E0FAA3E0FB12F5
:100CA5000A2A701BD283D3E52C94C4E52B940950F2
:0F0CB5000BA287B392849000C87401F01214DA76
:010CC400220D
:10158100E52D600CE4F52D120512120EE2120BC5C9
:011591002237
:10151F001215D41215481215DD120D8E1215AC12BC
:05152F0015340214F365
:0915C2002095037F01227F002225
:0915CB002097037F01227F00221A
:0C000E009000C3E06003B40102C2832232
:10141F009000C3E0FF64026014EFB403030212B440
:0E142F00A287B39284D2839000C87401F02289
:10001E009000C3E06402702F9000CBE09000C3F01C
:10002E00700D7B027D14FC7F14FE12148E801490D2
:10003E0000C3E0B4010D7B027D147C007F147E00B2
:10004E00121474752F01229000C3E0B40303121230
:02005E00EE2290
:101459009000C3E0FF64026011EFB4030B9000CB6E
:0B146900E09000C3F00215F1D28322D6
:101217009000C3E06403702F9000CBE09000C3F010
:10122700700D7B027D14FC7F14FE12148E801490C7
:1012370000C3E0B4010D7B027D147C007F147E00A7
:10124700121474752F01229000C3E06402601674B3
:1012570002F0A3120A6D000000007D0A7C007F0ADD
:061267007E001214C122FA
:101328009000C3E0B40112E4F09000CBF0C28490C6
:1013380000C804F01215F180159000C3E070120483
:10134800F09000CBF0C2849000C8F01215EB752F16
:02135800012270
:1014A8009000C3E0640260107403F07B027D147C3A
:0914B800007F147E00121474225E
:100FD600750BFF750C00750D0E750EFF750F1475EC
:100FE600101F7511FF7512147513597514007515B8
:100FF600007516007517FF7518137519287BFF7A8B
:101006001579C2120CC5750B00750C00750D0075AF
:101016000EFF750F0075101E7511FF7512127513F0
:10102600177514007515007516007517FF751814D9
:0C1036007519A87BFF7A1579CB020CC558
:1015480043B3A053B45F53B1E743B218D283D284F4
:03155800020FD6A9
:03000000020E5697
:0C0E5600787FE4F6D8FD75813B020E9D0C
:0E15920012151F1213B01215811210AD80F544
:100ADE00602700720000000000000000000000000F
:100AEE0000000000000000000000000000000000F8
:100AFE0000000000000000000000005400990000FB
:100B0E0000000000000000000000000000000000D7
:020B1E000000D5
:10110B00E4F508F509F509E50975F013A42472F562
:10111B0082E43400F583E0FBA3E0FAA3E0F9EA49AB
:10112B004B602DE50975F013A42472F582E43400AD
:10113B00F583A3E0FAA3E0F9120A9EBF0112E509B9
:10114B0075F013A42484F582E43400F583E042089F
:0B115B000509E509C3940240AEAF088F
:011166002266
:100CC5007F01900098E0FEC3940240021F2290002D
:100CD50098E0FD75F013A42472F582E43400F583E1
:100CE500EBF0A3EAF0A3E9F0ED75F013A42475F594
:100CF50082E43400F583E50BF0A3E50CF0A3E50DE4
:100D0500F0ED75F013A42478F582E43400F583E55D
:100D15000EF0A3E50FF0A3E510F0ED75F013A42494
:100D25007BF582E43400F583E511F0A3E512F0A329
:100D3500E513F0ED75F013A4247EF582E43400F597
:100D450083E514F0A3E515F0A3E516F0ED75F013B2
:100D5500A42481F582E43400F583E517F0A3E518B2
:100D6500F0A3E519F0EFA805088002C333D8FCFF0E
:100D7500EE75F013A42484F582E43400F583EFF0D6
:080D8500900098E004F07F01EA
:010D8D002243
:100066008F0C8D0DE50D75F00AA4249EF582E434FF
:1000760000F583E004F0E50D75F00AA4249FF582EF
:10008600E43400F583E004F0E50C6017E50D75F047
:100096000AA4249DF582E43400F583E0650C700320
:1000A600020264E50D75F00AA4249BF582E434008F
:1000B600F583E0FEA3E0C39402EE94005019E50D2B
:1000C60075F00AA4249BF582E43400F583E475F008
:1000D60001120A06020416E50D75F00AA42499F524
:1000E60082E43400F583E0FEA3E0C39458EE940264
:1000F6004040E50D75F00AA424A2F582E43400F52B
:1001060083E4F0E50D75F013A4247EF582E4340053
:10011600F583E0FBA3E0FAA3E0F9EA494B7003029A
:10012600023CE50D75F013A4247EF582E43400024A
:100136000231E50D75F00AA42499F582E43400F540
:1001460083E0FEA3E0C39402EE9400500302023C57
:10015600E50D75F013A42481F582E43400F583E0FF
:10016600FBA3E0FAA3E0F9EA494B7003020208E5B3
:100176000D75F00AA424A2F582E43400F583E0B4F8
:100186000114E50D75F00AA424A2F582E43400F505
:1001960083E4F002023CE50D75F00AA424A1F58281
:1001A600E43400F583E0B40134E50D75F013A424BE
:1001B60078F582E43400F583E0FBA3E0FAA3E0F9E6
:1001C600EA494B6018E50D75F013A42478F582E42E
:1001D6003400F583A3E0FAA3E0F9120A9EE50D7553
:1001E600F00AA4249FF582E43400F583E4F0E50DDB
:1001F60075F00AA424A1F582E43400F5837401F0B5
:100206008034E50D75F013A42478F582E43400F506
:1002160083E0FBA3E0FAA3E0F9EA494B6018E50D99
:1002260075F013A42478F582E43400F583A3E0FA8C
:10023600A3E0F9120A9EE50D75F00AA4249DF58245
:10024600E43400F583E50CF0E50D75F00AA4249975
:10025600F582E43400F583E4F0A3F0020416E50D1C
:1002660075F00AA42499F582E43400F583E475F068
:1002760001120A06E50D75F00AA42499F582E43404
:1002860000F583E0FEA3E064024E60030203B5E5D9
:100296000D75F00AA4249BF582E43400F583E4F09E
:1002A600A3F0E50D75F013A42481F582E43400F57E
:1002B60083E0FBA3E0FAA3E0F9EA494B70030203EB
:1002C6008AE50D75F00AA424A1F582E43400F583CD
:1002D600E064017078E50D75F00AA4249EF582E4C9
:1002E6003400F583E0C3941E5063E50D75F00AA44F
:1002F60024A2F582E43400F5837401F0E50D75F06F
:100306000AA424A1F582E43400F583E4F0E50D7532
:10031600F00AA424A0F582E43400F583E4F0E50DA8
:1003260075F013A42481F582E43400F583E0FBA381
:10033600E0FAA3E0F9EA494B7003020416E50D75ED
:10034600F013A42481F582E4340002040BE50D7554
:10035600F00AA424A2F582E43400F583E4F0E50D66
:1003660075F00AA424A0F582E43400F5837401F044
:10037600E50D75F00AA4249EF582E43400F583E4C5
:10038600F0020416E50D75F013A42475F582E43425
:1003960000F583E0FBA3E0FAA3E0F9EA494B6070BD
:1003A600E50D75F013A42475F582E434008056E556
:1003B6000D75F00AA42499F582E43400F583E0FE75
:1003C600A3E064587003EE64027045E50D75F00A0B
:1003D600A424A2F582E43400F583E4F0E50D75F07B
:1003E60013A4247BF582E43400F583E0FBA3E0FA52
:1003F600A3E0F9EA494B6018E50D75F013A4247BD8
:10040600F582E43400F583A3E0FAA3E0F9120A9E2C
:10041600E50D75F013A42481F582E43400F583E03C
:10042600FBA3E0FAA3E0F9EA494B7003020511E5E4
:100436000D75F00AA424A0F582E43400F583E06487
:1004460001705AE50D75F00AA4249EF582E4340085
:10045600F583E0C3941E4045E50D75F00AA424A07B
:10046600F582E43400F583E4F0E50D75F013A42479
:1004760075F582E43400F583E0FBA3E0FAA3E0F926
:10048600EA494B6018E50D75F013A42475F582E46E
:100496003400F583A3E0FAA3E0F9120A9EE50D7590
:1004A600F00AA424A1F582E43400F583E064017027
:1004B6005AE50D75F00AA4249FF582E43400F5830D
:1004C600E0C3941E4045E50D75F00AA424A1F5820B
:1004D600E43400F583E4F0E50D75F013A42478F513
:1004E60082E43400F583E0FBA3E0FAA3E0F9EA49ED
:1004F6004B6018E50D75F013A42478F582E43400FA
:0C050600F583A3E0FAA3E0F9120A9E229C
:02135A008F08FA
:10135C00E4F509750A01F50BF509AF09E50AA807CB
:10136C00088002C333D8FC5508F50BAD09FF1200F9
:0A137C00660509E509C3940240E08C
:011386002244
:08000300E4FF12110B02135A75
:100B20000F1A00000000000000000000000000009C
:010B300000C4
:0915D40053B1DF43B220C28522AD
:1011BF00E520640270510522E52270020521C395D6
:1011CF0024E5219523404030850E851C23851D2461
:1011DF00E52860100526800C851A23851B24E5273A
:1011EF0060020525B285E4F521F522E528600AE5C0
:1011FF0026C3951F4003E4F520E527600AE525C3C4
:08120F00951E40037520012229
:1014C1007520028E1A8F1B8C1C8D1DE4F51EF51FD5
:0914D100F525F526F527F5282282
:101474007520028E1A8F1B8C1C8D1D8B1EE4F51F8C
:0A148400F525F526752701F528224D
:10148E007520028E1A8F1B8C1C8D1DE4F51E8B1F72
:0A149E00F525F526F5277528012233
:0615EB00D28575200122EB
:0615F100C285E4F5202292
:100B31005400ADFF000000000000000000000000B4
:070B410000000000000000AD
:10155B0075C7AA75C755439F0175C7AA75C755436C
:03156B00A50122B5
:1015090075AF2275A738E4F5A675AEFF75C7AA753C
:06151900C75543A40122A6
:10156E0075C7AA75C75553A5FE75C7AA75C7555336
:03157E009FFE22AB
:1013D900E4FF75AF2175A7388FA674AD2FF582E4A8
:1013E9003400F583E0F5AE75C7AA75C75543A40166
:0413F9000FBF14DE30
:0113FD0022CD
:1013FE00E4FDED2400FFE434388F82F583E493FF9F
:10140E0074AD2DF582E43400F583EFF00DBD14E2DA
:01141E0022AB
:0C15A00012155B1215091213D902156E0A
:100B480060640000000000000000000000000000D9
:100B5800000000000000000000000000000000008D
:100B6800000000000000000000000000000000007D
:100B7800000000000000000000000000000000006D
:100B8800000000000000000000000000000000005D
:100B9800000000000000000000000000000000004D
:100BA80000000000000000004E006400000000008B
:0C0BB800000000000000000000013B00F5
:04104200AB07AA0648
:10104600900001E07019C3EB94FAEA94004057301F
:101056009554A3EAF0A3EBF09000017401F0227C12
:10106600007D05AF03AE0212099FD3900003E09FF7
:10107600900002E09E4016E53B25E02404F582E45C
:101086003400F583EAF0A3EBF0053B8007E490001B
:1010960001F0F53BE53BC39430400BE4F53B900093
:0610A6000004F0E4A3F0D9
:0110AC002221
:1014DA00E490006EF0A3F090006A120A6D0000001A
:0914EA0000E4900064F0A3F0227C
:10051200E4F50BF50AF509F508F50CF50DF50EF500
:100522000FF510F511F512F513F514F515F516F58D
:1005320017900000E0640160030207D9F090006E9A
:10054200E07002A3E0702D900004E0FFA3E09000B1
:1005520066CFF0A3EFF0900006E0FFA3E090006802
:10056200CFF0A3EFF0900002E0FFA3E0900064CF91
:10057200F0A3EFF0900068E0FEA3E0FF900067E0D8
:100582002FF50D900066E03EF50CFEAF0D7C007D70
:10059200051209B18E108F11900064E0FEA3E0FFF6
:1005A2007C007D051209B18E128F13E4FBEBC3941C
:1005B200304003020703EB25E02406F582E4340011
:1005C200F583E0FEA3E0FFEB25E02404F582E434AA
:1005D20000F583E0FCA3E0FD2FF50FEC3EF50EE500
:1005E2000D2511FFE50C3510FED3E50F9FE50E9E9C
:1005F2005014C3E50D9511FFE50C9510FEC3E50FF0
:100602009FE50E9E500F900071E004F0700690007E
:1006120070E004F022EB25E02406F582E43400F5D4
:1006220083E0FEA3E0FFD3ED9FEC9E4050AF0BAE04
:100632000AAD09AC087801120A4EEF4401F50BEE3F
:10064200F50AEDF509ECF508EB25E02406F582E460
:100652003400F583E0FEA3E02515F515EE3514F51B
:1006620014EB25E02404F582E43400F583E0FEA3D4
:10067200E02517F517EE3516F5160206FEEB25E016
:100682002406F582E43400F583E0FEA3E0FFEB25C7
:10069200E02404F582E43400F583E0FCA3E0C39F88
:1006A200EC9E5049AF0BAE0AAD09AC087801120AB4
:1006B2004E8F0B8E0A8D098C08EB25E02406F582FD
:1006C200E43400F583E0FEA3E02517F517EE3516B6
:1006D200F516EB25E02404F582E43400F583E0FE10
:1006E200A3E02515F515EE3514F514800F90007171
:1006F200E004F07006900070E004F0220B0B02059B
:10070200AF900002E0FEA3E0FF2511FDE5103EFCE4
:10071200900064E0FAA3E0FBC39DEA9C502BC3EF78
:100722009511FFEE9510FED3EB9FEA9E401B9000C1
:100732006AE0FCA3E0FDA3E0FEA3E0FFAB0BAA0A84
:10074200A909A808120A2A6078900002E0FFA3E033
:10075200900064CFF0A3EFF0AF0BAE0AAD09AC0886
:1007620090006A120A6190006EE4F0A304F0E4A320
:10077200F0A3F0AE14AF15FC7D181209B1AC06ADB2
:1007820007E41208E5E4FBFAF9783F1207EF1209D1
:100792001E900068EEF0A3EFF0AE16AF177C007D5E
:1007A200181209B1AC06AD07E41208E5E4FBFAF948
:1007B200783F1207EF12091E900066EEF0A3EFF0E9
:1007C2002290006FE004F0700690006EE004F0E406
:1007D200900070F0A3F022900071E004F070069097
:0507E2000070E004F0CE
:0107E70022EF
:10143D0053C8FE53C90F43C9D043C9084392104343
:0C144D0093035393FE53F1F043F1082287
:0715E40043B32053B4DF22E2
:0C15AC001215E412143D439B04D2CA2225
:0300630002126D19
:10126D00C0E0C0F0C083C082C0D075D000C000C047
:0B127D0002C003C004C005C006C0078B
:10128800E59230E00E5392FEAFE5EFFEADE4EDFFE0
:03129800121042EF
:10129B00D007D006D005D004D003D002D000D0D0D8
:0912AB00D082D083D0F0D0E032F3
:1007E80002098AE86480F8E933E83360110460F0AC
:1007F800ED33EC337009E8FCE9FDEAFEEBFF220477
:1008080060DED3EB9FEA9EE99DE8C2E78CF0C2F771
:1008180095F0400CE8CCF8E9CDF9EACEFAEBCFFB3D
:1008280012095585D0F05804700320D5B3E8047038
:10083800075002B2D502099492D5EC0460F7E4CCD3
:10084800C0E0C398F8603B94186008400DD0E0FB06
:1008580002096CE4FBFAC9FC8028E830E406E4C924
:10086800FBE4CAFCE830E305E4C9CACBFCE854075A
:100878006010F8C3E913F9EA13FAEB13FBEC13FC65
:10088800D8F130F52FC3E49CFCEF9BFFEE9AFEED08
:1008980099FDD0E0FBEF4E4D4C701222DB030209AC
:1008A80091EC2CFCEF33FFEE33FEED33FDED30E73A
:1008B800EB02096CEF2BFFEE3AFEED39FDD0E0FBC1
:1008C80050130BBB0003020994ED13FDEE13FEEF6A
:0808D80013FFEC13FC02096C94
:1008E00075F020800E75F010800575F0087D007E93
:1008F000007F003392D530D503120A1CEC33401030
:10090000EF33FFEE33FEED33FDEC33FCD5F0ED229B
:0E091000E5F0247EA2D513CC92E7CDCEFF22D7
:10091E00EDD2E7CD33EC3392D524814006E4FFFED1
:10092E00FDFC22FCE4CFCECDCC24E0501174FF8030
:10093E00EDC3CC13CCCD13CDCE13CECF13CF0470CD
:07094E00F030D5DE020A1CA7
:10095500E9D2E7C933E833F892D5EDD2E7CD33ECE8
:0709650033FC5002B2D52261
:10096C00EC30E7100FBF000C0EBE00080DBD0004EC
:10097C000BEB6014A2D5EB13FCED92E7FD2274FF98
:10098C00FCFDFEFF22E480F8A2D574FF13FC7D80F1
:03099C00E480EF05
:100E6200021592E493A3F8E493A34003F68001F2FF
:100E720008DFF48029E493A3F85407240CC8C33391
:100E8200C4540F4420C8834004F456800146F6DF60
:100E9200E4800B0102040810204080900AA4E47E42
:100EA200019360BCA3FF543F30E509541FFEE49355
:100EB200A360010ECF54C025E060A840B8E493A31C
:100EC200FAE493A3F8E493A3C8C582C8CAC583CA47
:100ED200F0A3C8C582C8CAC583CADFE9DEE780BEFF
:010BC4000030
:10099F00EF8DF0A4A8F0CF8CF0A428CE8DF0A42E6C
:0209AF00FE2226
:1009B100BC000BBE0029EF8DF084FFADF022E4CC2A
:1009C100F875F008EF2FFFEE33FEEC33FCEE9DECF3
:1009D100984005FCEE9DFE0FD5F0E9E4CEFD22ED39
:1009E100F8F5F0EE8420D21CFEADF075F008EF2F83
:1009F100FFED33FD4007985006D5F0F222C398FD74
:050A01000FD5F0EA2210
:100A0600C5F0F8A3E028F0C5F0F8E582158270027B
:060A16001583E038F02218
:0E0A1C00C3E49FFFE49EFEE49DFDE49CFC22EB
:100A2A00EB9FF5F0EA9E42F0E99D42F0E89C45F022
:010A3A002299
:100A3B00E8600FECC313FCED13FDEE13FEEF13FF99
:030A4B00D8F122BD
:100A4E00E8600FEFC333FFEE33FEED33FDEC33FC06
:030A5E00D8F122AA
:0C0A6100ECF0A3EDF0A3EEF0A3EFF02208
:100A6D00A8828583F0D083D082120A84120A841260
:100A7D000A84120A84E473E493A3C583C5F0C58385
:100A8D00C8C582C8F0A3C583C5F0C583C8C582C8D3
:010A9D002236
:060A9E008A838982E473E3
:00000001FF
