:100AA700022A0000022C0000022E00000230000083
:10108A005389F0438902538EF7758C7B758A7BD21C
:06109A00A9D2AFD28C22A6
:1010B60053890F438910538E7F758DF5758B95D2A5
:0410C600ABD28E22F9
:03001B00021121AE
:0A112100758DF5758B95753401325C
:03000B00020DDB08
:040DDB00C0E0C0D0E4
:100DDF00052BE52B7002052A052DE52D7002052C3C
:100DEF00052FE52F7002052E0531E5317002053014
:100DFF00C3E52B9464E52A94004009752A00752BEE
:100E0F0000753501C3E52F94E8E52E94034009756D
:100E1F002E00752F00753901C3E52D94E8E52C944C
:0C0E2F00034009752C00752D007536017C
:050E3B00D0D0D0E03230
:100AB7004900C1000000000000000000023702BC2E
:100AC700013400013500013600013900013200010F
:020AD7003300EA
:10001E00E538B4BC0CE537B402077537037538E81C
:10002E0022AE37AF38E4FCFD7B607AEAF9F8C312F2
:10003E000A2A70077537EA7538602274E82538F594
:08004E003874033537F5372241
:100F6200E538B4BC07E537B40202800AE538B4E8D4
:100F72000CE537B403077537027538BC227418259F
:0A0F820038F53874FC3537F53722D6
:06115C00E49000C3F02244
:07114E0043B18053B27F2280
:100E9C009000C3E06401703F9000C2E004F0700663
:100EAC009000C1E004F030872BE5327009753201F7
:100EBC009000C1F0A3F0C39000C2E094079000C171
:100ECC00E094004012E4F0A3F0F532C2849000C923
:100EDC0004F08003E4F5329000C9E07004A287921C
:010EEC008481
:010EED0022E2
:100F8C009000C9E06022A287308401B3500AE53397
:100F9C007006753301C28322E533B40106E4F533E0
:080FAC00D28322E49000C9F099
:010FB400221A
:10101C00E5356006E4F535121146E5396006E4F570
:0F102C0039120E9CE5366006E4F536120F8C2261
:0F11120012115C12113D12110112114E02108ABE
:09112B002095037F01227F0022C0
:091134002097037F01227F0022B5
:01001A0022C3
:101057009000C3E0FF64026010EF6403600BA28797
:0A106700B392849000C97401F022D6
:01006200227B
:01116200226A
:1010F0009000C3E0FF64026007EF64036002D283E4
:0111000022CC
:011163002269
:011164002268
:011165002267
:100FDA009000C3E0FFB4010AE4F0C2849000C9049F
:100FEA00F022EF700B9000C304F0C2849000C9F0A5
:010FFA0022D4
:011166002266
:100D0400750BFF750C00750D1A750EFF750F1075B8
:100D140010577511FF7512107513F07514FF7515C2
:100D2400117516647517FF75180F7519DA7BFF7A3C
:100D340011792B120BAF750BFF750C00750D6275D5
:100D44000EFF750F117510627511FF751211751371
:100D5400637514FF7515117516657517FF751811F0
:0C0D64007519667BFF7A117934020BAF21
:1011010043B3A053B45F53B1E743B218C284020D95
:0111110004D9
:03000000020C7877
:0C0C7800787FE4F6D8FD75813A020CBFCD
:0800030012111212101C80FB07
:100AD9006027007200000000000000000000000014
:100AE90000000000000000000000000000000000FD
:100AF9000000000000000000000000540099000000
:100B090000000000000000000000000000000000DC
:020B19000000DA
:100E4000E4F508F509F509E50975F013A42472F530
:100E500082E43400F583E0FBA3E0FAA3E0F9EA4979
:100E60004B602DE50975F013A42472F582E434007B
:100E7000F583A3E0FAA3E0F9120AA1BF0112E50984
:100E800075F013A42484F582E43400F583E042086D
:0B0E90000509E509C3940240AEAF085D
:010E9B002234
:100BAF007F01900098E0FEC3940240021F22900044
:100BBF0098E0FD75F013A42472F582E43400F583F8
:100BCF00EBF0A3EAF0A3E9F0ED75F013A42475F5AB
:100BDF0082E43400F583E50BF0A3E50CF0A3E50DFB
:100BEF00F0ED75F013A42478F582E43400F583E575
:100BFF000EF0A3E50FF0A3E510F0ED75F013A424AC
:100C0F007BF582E43400F583E511F0A3E512F0A340
:100C1F00E513F0ED75F013A4247EF582E43400F5AE
:100C2F0083E514F0A3E515F0A3E516F0ED75F013C9
:100C3F00A42481F582E43400F583E517F0A3E518C9
:100C4F00F0A3E519F0EFA805088002C333D8FCFF25
:100C5F00EE75F013A42484F582E43400F583EFF0ED
:080C6F00900098E004F07F0101
:010C7700225A
:100066008F0C8D0DE50D75F00AA4249EF582E434FF
:1000760000F583E004F0E50D75F00AA4249FF582EF
:10008600E43400F583E004F0E50C6017E50D75F047
:100096000AA4249DF582E43400F583E0650C700320
:1000A600020264E50D75F00AA4249BF582E434008F
:1000B600F583E0FEA3E0C39402EE94005019E50D2B
:1000C60075F00AA4249BF582E43400F583E475F008
:1000D60001120A06020416E50D75F00AA42499F524
:1000E60082E43400F583E0FEA3E0C39458EE940264
:1000F6004040E50D75F00AA424A2F582E43400F52B
:1001060083E4F0E50D75F013A4247EF582E4340053
:10011600F583E0FBA3E0FAA3E0F9EA494B7003029A
:10012600023CE50D75F013A4247EF582E43400024A
:100136000231E50D75F00AA42499F582E43400F540
:1001460083E0FEA3E0C39402EE9400500302023C57
:10015600E50D75F013A42481F582E43400F583E0FF
:10016600FBA3E0FAA3E0F9EA494B7003020208E5B3
:100176000D75F00AA424A2F582E43400F583E0B4F8
:100186000114E50D75F00AA424A2F582E43400F505
:1001960083E4F002023CE50D75F00AA424A1F58281
:1001A600E43400F583E0B40134E50D75F013A424BE
:1001B60078F582E43400F583E0FBA3E0FAA3E0F9E6
:1001C600EA494B6018E50D75F013A42478F582E42E
:1001D6003400F583A3E0FAA3E0F9120AA1E50D7550
:1001E600F00AA4249FF582E43400F583E4F0E50DDB
:1001F60075F00AA424A1F582E43400F5837401F0B5
:100206008034E50D75F013A42478F582E43400F506
:1002160083E0FBA3E0FAA3E0F9EA494B6018E50D99
:1002260075F013A42478F582E43400F583A3E0FA8C
:10023600A3E0F9120AA1E50D75F00AA4249DF58242
:10024600E43400F583E50CF0E50D75F00AA4249975
:10025600F582E43400F583E4F0A3F0020416E50D1C
:1002660075F00AA42499F582E43400F583E475F068
:1002760001120A06E50D75F00AA42499F582E43404
:1002860000F583E0FEA3E064024E60030203B5E5D9
:100296000D75F00AA4249BF582E43400F583E4F09E
:1002A600A3F0E50D75F013A42481F582E43400F57E
:1002B60083E0FBA3E0FAA3E0F9EA494B70030203EB
:1002C6008AE50D75F00AA424A1F582E43400F583CD
:1002D600E064017078E50D75F00AA4249EF582E4C9
:1002E6003400F583E0C3941E5063E50D75F00AA44F
:1002F60024A2F582E43400F5837401F0E50D75F06F
:100306000AA424A1F582E43400F583E4F0E50D7532
:10031600F00AA424A0F582E43400F583E4F0E50DA8
:1003260075F013A42481F582E43400F583E0FBA381
:10033600E0FAA3E0F9EA494B7003020416E50D75ED
:10034600F013A42481F582E4340002040BE50D7554
:10035600F00AA424A2F582E43400F583E4F0E50D66
:1003660075F00AA424A0F582E43400F5837401F044
:10037600E50D75F00AA4249EF582E43400F583E4C5
:10038600F0020416E50D75F013A42475F582E43425
:1003960000F583E0FBA3E0FAA3E0F9EA494B6070BD
:1003A600E50D75F013A42475F582E434008056E556
:1003B6000D75F00AA42499F582E43400F583E0FE75
:1003C600A3E064587003EE64027045E50D75F00A0B
:1003D600A424A2F582E43400F583E4F0E50D75F07B
:1003E60013A4247BF582E43400F583E0FBA3E0FA52
:1003F600A3E0F9EA494B6018E50D75F013A4247BD8
:10040600F582E43400F583A3E0FAA3E0F9120AA129
:10041600E50D75F013A42481F582E43400F583E03C
:10042600FBA3E0FAA3E0F9EA494B7003020511E5E4
:100436000D75F00AA424A0F582E43400F583E06487
:1004460001705AE50D75F00AA4249EF582E4340085
:10045600F583E0C3941E4045E50D75F00AA424A07B
:10046600F582E43400F583E4F0E50D75F013A42479
:1004760075F582E43400F583E0FBA3E0FAA3E0F926
:10048600EA494B6018E50D75F013A42475F582E46E
:100496003400F583A3E0FAA3E0F9120AA1E50D758D
:1004A600F00AA424A1F582E43400F583E064017027
:1004B6005AE50D75F00AA4249FF582E43400F5830D
:1004C600E0C3941E4045E50D75F00AA424A1F5820B
:1004D600E43400F583E4F0E50D75F013A42478F513
:1004E60082E43400F583E0FBA3E0FAA3E0F9EA49ED
:1004F6004B6018E50D75F013A42478F582E43400FA
:0C050600F583A3E0FAA3E0F9120AA12299
:020F35008F0823
:100F3700E4F509750A01F50BF509AF09E50AA807F4
:100F4700088002C333D8FC5508F50BAD09FF120022
:0A0F5700660509E509C3940240E0B5
:010F6100226D
:08114600E4FF120E40020F3518
:09113D0053B1DF43B220C2852248
:100B1B005400ADFF000000000000000000000000CA
:070B2B0000000000000000C3
:1010CA0075C7AA75C755439F0175C7AA75C7554302
:0310DA00A501224B
:1010A00075AF2275A738E4F5A675AEFF75C7AA75AA
:0610B000C75543A4012214
:1010DD0075C7AA75C75553A5FE75C7AA75C75553CC
:0310ED009FFE2241
:100FB500E4FF75AF2175A7388FA674AD2FF582E4D0
:100FC5003400F583E0F5AE75C7AA75C75543A4018E
:040FD5000FBF14DE58
:010FD90022F5
:100FFB00E4FDED2400FFE434388F82F583E493FFA6
:10100B0074AD2DF582E43400F583EFF00DBD14E2E1
:01101B0022B2
:0C000E001210CA1210A0120FB50210DD73
:100B320060640000000000000000000000000000EF
:100B420000000000000000000000000000000000A3
:100B52000000000000000000000000000000000093
:100B62000000000000000000000000000000000083
:100B72000000000000000000000000000000000073
:100B82000000000000000000000000000000000063
:100B920000000000000000004E00640000000000A1
:0C0BA200000000000000000000013A000C
:040D7000AB07AA061D
:100D7400900001E07019C3EB94FAEA9400405730F4
:100D84009554A3EAF0A3EBF09000017401F0227CE7
:100D9400007D05AF03AE0212099FD3900003E09FCC
:100DA400900002E09E4016E53A25E02404F582E432
:100DB4003400F583EAF0A3EBF0053A8007E49000F1
:100DC40001F0F53AE53AC39430400BE4F53A90006B
:060DD4000004F0E4A3F0AE
:010DDA0022F6
:10107100E490006EF0A3F090006A120A7000000084
:0910810000E4900064F0A3F022E9
:10051200E4F51DF51CF51BF51AF51EF51FF520F582
:1005220021F522F523F524F525F526F527F528F5FD
:1005320029900000E0640160030207D9F090006E88
:10054200E07002A3E0702D900004E0FFA3E09000B1
:1005520066CFF0A3EFF0900006E0FFA3E090006802
:10056200CFF0A3EFF0900002E0FFA3E0900064CF91
:10057200F0A3EFF0900068E0FEA3E0FF900067E0D8
:100582002FF51F900066E03EF51EFEAF1F7C007D3A
:10059200051209B18E228F23900064E0FEA3E0FFD2
:1005A2007C007D051209B18E248F25E4FBEBC394F8
:1005B200304003020703EB25E02406F582E4340011
:1005C200F583E0FEA3E0FFEB25E02404F582E434AA
:1005D20000F583E0FCA3E0FD2FF521EC3EF520E5DC
:1005E2001F2523FFE51E3522FED3E5219FE5209E30
:1005F2005014C3E51F9523FFE51E9522FEC3E52196
:100602009FE5209E500F900071E004F0700690006C
:1006120070E004F022EB25E02406F582E43400F5D4
:1006220083E0FEA3E0FFD3ED9FEC9E4050AF1DAEF2
:100632001CAD1BAC1A7801120A51EF4401F51DEEF4
:10064200F51CEDF51BECF51AEB25E02406F582E42A
:100652003400F583E0FEA3E02527F527EE3526F5E5
:1006620026EB25E02404F582E43400F583E0FEA3C2
:10067200E02529F529EE3528F5280206FEEB25E0CE
:100682002406F582E43400F583E0FEA3E0FFEB25C7
:10069200E02404F582E43400F583E0FCA3E0C39F88
:1006A200EC9E5049AF1DAE1CAD1BAC1A7801120A6C
:1006B200518F1D8E1C8D1B8C1AEB25E02406F582B2
:1006C200E43400F583E0FEA3E02529F529EE352880
:1006D200F528EB25E02404F582E43400F583E0FEFE
:1006E200A3E02527F527EE3526F526800F90007129
:1006F200E004F07006900070E004F0220B0B02059B
:10070200AF900002E0FEA3E0FF2523FDE5223EFCC0
:10071200900064E0FAA3E0FBC39DEA9C502BC3EF78
:100722009523FFEE9522FED3EB9FEA9E401B90009D
:100732006AE0FCA3E0FDA3E0FEA3E0FFAB1DAA1C60
:10074200A91BA81A120A406078900002E0FFA3E0F9
:10075200900064CFF0A3EFF0AF1DAE1CAD1BAC1A3E
:1007620090006A120A6490006EE4F0A304F0E4A31D
:10077200F0A3F0AE26AF27FC7D181209B1AC06AD8E
:1007820007E41208E5E4FBFAF9783F1207EF1209D1
:100792001E900068EEF0A3EFF0AE28AF297C007D3A
:1007A200181209B1AC06AD07E41208E5E4FBFAF948
:1007B200783F1207EF12091E900066EEF0A3EFF0E9
:1007C2002290006FE004F0700690006EE004F0E406
:1007D200900070F0A3F022900071E004F070069097
:0507E2000070E004F0CE
:0107E70022EF
:10103B0053C8FE53C90F43C9D043C9084392104349
:0C104B0093035393FE53F1F043F108228D
:0711550043B32053B4DF2275
:0C00560012115512103B439B04D2CA2229
:03006300020EEE9C
:100EEE00C0E0C0F0C083C082C0D075D000C000C0CA
:0B0EFE0002C003C004C005C006C0070E
:100F0900E59230E00E5392FEAFE5EFFEADE4EDFF62
:030F1900120D7046
:100F1C00D007D006D005D004D003D002D000D0D05A
:090F2C00D082D083D0F0D0E03275
:1007E80002098AE86480F8E933E83360110460F0AC
:1007F800ED33EC337009E8FCE9FDEAFEEBFF220477
:1008080060DED3EB9FEA9EE99DE8C2E78CF0C2F771
:1008180095F0400CE8CCF8E9CDF9EACEFAEBCFFB3D
:1008280012095585D0F05804700320D5B3E8047038
:10083800075002B2D502099492D5EC0460F7E4CCD3
:10084800C0E0C398F8603B94186008400DD0E0FB06
:1008580002096CE4FBFAC9FC8028E830E406E4C924
:10086800FBE4CAFCE830E305E4C9CACBFCE854075A
:100878006010F8C3E913F9EA13FAEB13FBEC13FC65
:10088800D8F130F52FC3E49CFCEF9BFFEE9AFEED08
:1008980099FDD0E0FBEF4E4D4C701222DB030209AC
:1008A80091EC2CFCEF33FFEE33FEED33FDED30E73A
:1008B800EB02096CEF2BFFEE3AFEED39FDD0E0FBC1
:1008C80050130BBB0003020994ED13FDEE13FEEF6A
:0808D80013FFEC13FC02096C94
:1008E00075F020800E75F010800575F0087D007E93
:1008F000007F003392D530D503120A1CEC33401030
:10090000EF33FFEE33FEED33FDEC33FCD5F0ED229B
:0E091000E5F0247EA2D513CC92E7CDCEFF22D7
:10091E00EDD2E7CD33EC3392D524814006E4FFFED1
:10092E00FDFC22FCE4CFCECDCC24E0501174FF8030
:10093E00EDC3CC13CCCD13CDCE13CECF13CF0470CD
:07094E00F030D5DE020A1CA7
:10095500E9D2E7C933E833F892D5EDD2E7CD33ECE8
:0709650033FC5002B2D52261
:10096C00EC30E7100FBF000C0EBE00080DBD0004EC
:10097C000BEB6014A2D5EB13FCED92E7FD2274FF98
:10098C00FCFDFEFF22E480F8A2D574FF13FC7D80F1
:03099C00E480EF05
:100C8400020003E493A3F8E493A34003F68001F283
:100C940008DFF48029E493A3F85407240CC8C33371
:100CA400C4540F4420C8834004F456800146F6DF40
:100CB400E4800B0102040810204080900AA7E47E1F
:100CC400019360BCA3FF543F30E509541FFEE49335
:100CD400A360010ECF54C025E060A840B8E493A3FC
:100CE400FAE493A3F8E493A3C8C582C8CAC583CA27
:100CF400F0A3C8C582C8CAC583CADFE9DEE780BEDF
:010BAE000046
:10099F00EF8DF0A4A8F0CF8CF0A428CE8DF0A42E6C
:0209AF00FE2226
:1009B100BC000BBE0029EF8DF084FFADF022E4CC2A
:1009C100F875F008EF2FFFEE33FEEC33FCEE9DECF3
:1009D100984005FCEE9DFE0FD5F0E9E4CEFD22ED39
:1009E100F8F5F0EE8420D21CFEADF075F008EF2F83
:1009F100FFED33FD4007985006D5F0F222C398FD74
:050A01000FD5F0EA2210
:100A0600C5F0F8A3E028F0C5F0F8E582158270027B
:060A16001583E038F02218
:0E0A1C00C3E49FFFE49EFEE49DFDE49CFC22EB
:100A2A00EB9FF5F0EA9E42F0E99D42F0EC6480C843
:060A3A0064809845F022E3
:100A4000EB9FF5F0EA9E42F0E99D42F0E89C45F00C
:010A50002283
:100A5100E8600FEFC333FFEE33FEED33FDEC33FC03
:030A6100D8F122A7
:0C0A6400ECF0A3EDF0A3EEF0A3EFF02205
:100A7000A8828583F0D083D082120A87120A871257
:100A80000A87120A87E473E493A3C583C5F0C5837C
:100A9000C8C582C8F0A3C583C5F0C583C8C582C8D0
:010AA0002233
:060AA1008A838982E473E0
:00000001FF
